{
  "contractName": "EcommerceStore",
  "abi": [
    {
      "inputs": [],
      "payable": false,
      "stateMutability": "nonpayable",
      "type": "constructor"
    },
    {
      "anonymous": false,
      "inputs": [
        {
          "indexed": false,
          "internalType": "uint256",
          "name": "_amount",
          "type": "uint256"
        },
        {
          "indexed": false,
          "internalType": "address",
          "name": "_beneficiary",
          "type": "address"
        }
      ],
      "name": "ArbiterEarn",
      "type": "event"
    },
    {
      "anonymous": false,
      "inputs": [
        {
          "indexed": false,
          "internalType": "uint256",
          "name": "_productId",
          "type": "uint256"
        },
        {
          "indexed": false,
          "internalType": "address",
          "name": "_seller",
          "type": "address"
        },
        {
          "indexed": false,
          "internalType": "uint256",
          "name": "_auctionStartTime",
          "type": "uint256"
        },
        {
          "indexed": false,
          "internalType": "uint256",
          "name": "_auctionEndTime",
          "type": "uint256"
        },
        {
          "indexed": false,
          "internalType": "uint256",
          "name": "_startPrice",
          "type": "uint256"
        },
        {
          "indexed": false,
          "internalType": "uint256",
          "name": "_productCondition",
          "type": "uint256"
        },
        {
          "indexed": false,
          "internalType": "uint256",
          "name": "_auctionRevealTime",
          "type": "uint256"
        }
      ],
      "name": "ChangeProduct",
      "type": "event"
    },
    {
      "anonymous": false,
      "inputs": [
        {
          "indexed": false,
          "internalType": "address",
          "name": "_buyer",
          "type": "address"
        },
        {
          "indexed": false,
          "internalType": "uint256",
          "name": "_amount",
          "type": "uint256"
        }
      ],
      "name": "CreateEscrow",
      "type": "event"
    },
    {
      "anonymous": false,
      "inputs": [
        {
          "indexed": false,
          "internalType": "address",
          "name": "_buyer",
          "type": "address"
        },
        {
          "indexed": false,
          "internalType": "uint256",
          "name": "_amount",
          "type": "uint256"
        },
        {
          "indexed": false,
          "internalType": "address",
          "name": "_beneficiary",
          "type": "address"
        }
      ],
      "name": "DisburseAmount",
      "type": "event"
    },
    {
      "anonymous": false,
      "inputs": [
        {
          "indexed": false,
          "internalType": "uint256",
          "name": "_productId",
          "type": "uint256"
        },
        {
          "indexed": false,
          "internalType": "address",
          "name": "_bidder",
          "type": "address"
        }
      ],
      "name": "NewBid",
      "type": "event"
    },
    {
      "anonymous": false,
      "inputs": [
        {
          "indexed": false,
          "internalType": "uint256",
          "name": "_productId",
          "type": "uint256"
        },
        {
          "indexed": false,
          "internalType": "address",
          "name": "_seller",
          "type": "address"
        },
        {
          "indexed": false,
          "internalType": "string",
          "name": "_name",
          "type": "string"
        },
        {
          "indexed": false,
          "internalType": "string",
          "name": "_category",
          "type": "string"
        },
        {
          "indexed": false,
          "internalType": "string[]",
          "name": "_imageLinkArray",
          "type": "string[]"
        },
        {
          "indexed": false,
          "internalType": "string",
          "name": "_descLink",
          "type": "string"
        },
        {
          "indexed": false,
          "internalType": "uint256",
          "name": "_auctionStartTime",
          "type": "uint256"
        },
        {
          "indexed": false,
          "internalType": "uint256",
          "name": "_auctionEndTime",
          "type": "uint256"
        },
        {
          "indexed": false,
          "internalType": "uint256",
          "name": "_startPrice",
          "type": "uint256"
        },
        {
          "indexed": false,
          "internalType": "uint256",
          "name": "_productCondition",
          "type": "uint256"
        },
        {
          "indexed": false,
          "internalType": "uint256",
          "name": "_auctionRevealTime",
          "type": "uint256"
        }
      ],
      "name": "NewProduct",
      "type": "event"
    },
    {
      "constant": true,
      "inputs": [],
      "name": "productIndex",
      "outputs": [
        {
          "internalType": "uint256",
          "name": "",
          "type": "uint256"
        }
      ],
      "payable": false,
      "stateMutability": "view",
      "type": "function"
    },
    {
      "constant": false,
      "inputs": [
        {
          "internalType": "uint256",
          "name": "_productId",
          "type": "uint256"
        },
        {
          "internalType": "uint256",
          "name": "_auctionStartTime",
          "type": "uint256"
        },
        {
          "internalType": "uint256",
          "name": "_auctionEndTime",
          "type": "uint256"
        },
        {
          "internalType": "uint256",
          "name": "_startPrice",
          "type": "uint256"
        },
        {
          "internalType": "uint256",
          "name": "_auctionRevealTime",
          "type": "uint256"
        }
      ],
      "name": "changeInfoToSellAgain",
      "outputs": [],
      "payable": true,
      "stateMutability": "payable",
      "type": "function"
    },
    {
      "constant": false,
      "inputs": [
        {
          "internalType": "string",
          "name": "_name",
          "type": "string"
        },
        {
          "internalType": "string",
          "name": "_category",
          "type": "string"
        },
        {
          "internalType": "string[]",
          "name": "_imageLinkArray",
          "type": "string[]"
        },
        {
          "internalType": "string",
          "name": "_descLink",
          "type": "string"
        },
        {
          "internalType": "uint256",
          "name": "_auctionStartTime",
          "type": "uint256"
        },
        {
          "internalType": "uint256",
          "name": "_auctionEndTime",
          "type": "uint256"
        },
        {
          "internalType": "uint256",
          "name": "_startPrice",
          "type": "uint256"
        },
        {
          "internalType": "uint256",
          "name": "_productCondition",
          "type": "uint256"
        },
        {
          "internalType": "uint256",
          "name": "_auctionRevealTime",
          "type": "uint256"
        }
      ],
      "name": "addProductToStore",
      "outputs": [],
      "payable": true,
      "stateMutability": "payable",
      "type": "function"
    },
    {
      "constant": true,
      "inputs": [
        {
          "internalType": "uint256",
          "name": "_productId",
          "type": "uint256"
        }
      ],
      "name": "getProduct",
      "outputs": [
        {
          "internalType": "uint256",
          "name": "",
          "type": "uint256"
        },
        {
          "internalType": "string",
          "name": "",
          "type": "string"
        },
        {
          "internalType": "string",
          "name": "",
          "type": "string"
        },
        {
          "internalType": "string[]",
          "name": "",
          "type": "string[]"
        },
        {
          "internalType": "string",
          "name": "",
          "type": "string"
        },
        {
          "internalType": "uint256[3]",
          "name": "",
          "type": "uint256[3]"
        },
        {
          "internalType": "uint256",
          "name": "",
          "type": "uint256"
        },
        {
          "internalType": "enum EcommerceStore.ProductStatus",
          "name": "",
          "type": "uint8"
        },
        {
          "internalType": "enum EcommerceStore.ProductCondition",
          "name": "",
          "type": "uint8"
        }
      ],
      "payable": false,
      "stateMutability": "view",
      "type": "function"
    },
    {
      "constant": false,
      "inputs": [
        {
          "internalType": "uint256",
          "name": "_productId",
          "type": "uint256"
        },
        {
          "internalType": "bytes32",
          "name": "_bid",
          "type": "bytes32"
        }
      ],
      "name": "bid",
      "outputs": [
        {
          "internalType": "bool",
          "name": "",
          "type": "bool"
        }
      ],
      "payable": true,
      "stateMutability": "payable",
      "type": "function"
    },
    {
      "constant": false,
      "inputs": [
        {
          "internalType": "uint256",
          "name": "_productId",
          "type": "uint256"
        },
        {
          "internalType": "string",
          "name": "_amountStr",
          "type": "string"
        },
        {
          "internalType": "uint256",
          "name": "_amountInt",
          "type": "uint256"
        },
        {
          "internalType": "string",
          "name": "_secret",
          "type": "string"
        }
      ],
      "name": "revealBid",
      "outputs": [
        {
          "internalType": "uint256",
          "name": "",
          "type": "uint256"
        }
      ],
      "payable": false,
      "stateMutability": "nonpayable",
      "type": "function"
    },
    {
      "constant": true,
      "inputs": [
        {
          "internalType": "uint256",
          "name": "_productId",
          "type": "uint256"
        }
      ],
      "name": "highestBidderInfo",
      "outputs": [
        {
          "internalType": "address",
          "name": "",
          "type": "address"
        },
        {
          "internalType": "uint256",
          "name": "",
          "type": "uint256"
        },
        {
          "internalType": "uint256",
          "name": "",
          "type": "uint256"
        }
      ],
      "payable": false,
      "stateMutability": "view",
      "type": "function"
    },
    {
      "constant": true,
      "inputs": [
        {
          "internalType": "uint256",
          "name": "_productId",
          "type": "uint256"
        }
      ],
      "name": "totalBids",
      "outputs": [
        {
          "internalType": "uint256",
          "name": "",
          "type": "uint256"
        }
      ],
      "payable": false,
      "stateMutability": "view",
      "type": "function"
    },
    {
      "constant": true,
      "inputs": [],
      "name": "getNumOfProduct",
      "outputs": [
        {
          "internalType": "uint256",
          "name": "",
          "type": "uint256"
        }
      ],
      "payable": false,
      "stateMutability": "view",
      "type": "function"
    },
    {
      "constant": false,
      "inputs": [
        {
          "internalType": "uint256",
          "name": "_productId",
          "type": "uint256"
        }
      ],
      "name": "finalizeAuction",
      "outputs": [],
      "payable": true,
      "stateMutability": "payable",
      "type": "function"
    },
    {
      "constant": true,
      "inputs": [
        {
          "internalType": "uint256",
          "name": "_productId",
          "type": "uint256"
        }
      ],
      "name": "getTracingInfo",
      "outputs": [
        {
          "internalType": "address[]",
          "name": "",
          "type": "address[]"
        },
        {
          "internalType": "string[]",
          "name": "",
          "type": "string[]"
        },
        {
          "internalType": "uint256[]",
          "name": "",
          "type": "uint256[]"
        }
      ],
      "payable": false,
      "stateMutability": "view",
      "type": "function"
    },
    {
      "constant": true,
      "inputs": [
        {
          "internalType": "uint256",
          "name": "_productId",
          "type": "uint256"
        }
      ],
      "name": "escrowAddressForProduct",
      "outputs": [
        {
          "internalType": "address",
          "name": "",
          "type": "address"
        }
      ],
      "payable": false,
      "stateMutability": "view",
      "type": "function"
    },
    {
      "constant": true,
      "inputs": [
        {
          "internalType": "uint256",
          "name": "_productId",
          "type": "uint256"
        }
      ],
      "name": "escrowInfo",
      "outputs": [
        {
          "internalType": "address payable",
          "name": "",
          "type": "address"
        },
        {
          "internalType": "address payable",
          "name": "",
          "type": "address"
        },
        {
          "internalType": "address",
          "name": "",
          "type": "address"
        },
        {
          "internalType": "bool",
          "name": "",
          "type": "bool"
        },
        {
          "internalType": "uint256",
          "name": "",
          "type": "uint256"
        },
        {
          "internalType": "uint256",
          "name": "",
          "type": "uint256"
        }
      ],
      "payable": false,
      "stateMutability": "view",
      "type": "function"
    },
    {
      "constant": true,
      "inputs": [
        {
          "internalType": "uint256",
          "name": "_productId",
          "type": "uint256"
        }
      ],
      "name": "sellerInfo",
      "outputs": [
        {
          "internalType": "address",
          "name": "",
          "type": "address"
        }
      ],
      "payable": false,
      "stateMutability": "view",
      "type": "function"
    },
    {
      "constant": false,
      "inputs": [
        {
          "internalType": "uint256",
          "name": "_productId",
          "type": "uint256"
        }
      ],
      "name": "releaseAmountToSeller",
      "outputs": [],
      "payable": false,
      "stateMutability": "nonpayable",
      "type": "function"
    },
    {
      "constant": false,
      "inputs": [
        {
          "internalType": "uint256",
          "name": "_productId",
          "type": "uint256"
        }
      ],
      "name": "refundAmountToBuyer",
      "outputs": [],
      "payable": false,
      "stateMutability": "nonpayable",
      "type": "function"
    }
  ],
  "bytecode": "0x60806040526040516200001290620000ee565b604051809103906000f0801580156200002f573d6000803e3d6000fd5b50600460006101000a81548173ffffffffffffffffffffffffffffffffffffffff021916908373ffffffffffffffffffffffffffffffffffffffff160217905550600460009054906101000a900473ffffffffffffffffffffffffffffffffffffffff16600560006101000a81548173ffffffffffffffffffffffffffffffffffffffff021916908373ffffffffffffffffffffffffffffffffffffffff160217905550348015620000e057600080fd5b5060008081905550620000fc565b610c1a8062005e9b83390190565b615d8f806200010c6000396000f3fe6080604052600436106100f25760003560e01c80639a3a7c691161008a578063cc352db711610059578063cc352db714610368578063ce818ea914610391578063e8083863146103d0578063ea1591bb146103ec576100f2565b80639a3a7c6914610290578063b9db15b4146102b9578063c59d5144146102fe578063c897d5a61461033d576100f2565b806348cb67b1116100c657806348cb67b1146101d95780635137316a1461021657806373d66f6114610232578063835605251461024e576100f2565b8062c75957146100f75780631c00be721461013457806328e3d1901461015f5780634389754a1461019c575b600080fd5b34801561010357600080fd5b5061011e600480360361011991908101906139b0565b61041c565b60405161012b9190614783565b60405180910390f35b34801561014057600080fd5b50610149610986565b6040516101569190614783565b60405180910390f35b34801561016b57600080fd5b506101866004803603610181919081019061394b565b61098f565b6040516101939190614783565b60405180910390f35b3480156101a857600080fd5b506101c360048036036101be919081019061394b565b610a24565b6040516101d09190614293565b60405180910390f35b3480156101e557600080fd5b5061020060048036036101fb919081019061394b565b610a61565b60405161020d9190614293565b60405180910390f35b610230600480360361022b9190810190613a43565b610a9e565b005b61024c60048036036102479190810190613825565b611582565b005b34801561025a57600080fd5b506102756004803603610270919081019061394b565b611937565b604051610287969594939291906142c9565b60405180910390f35b34801561029c57600080fd5b506102b760048036036102b2919081019061394b565b611a09565b005b3480156102c557600080fd5b506102e060048036036102db919081019061394b565b611c97565b6040516102f599989796959493929190614950565b60405180910390f35b34801561030a57600080fd5b506103256004803603610320919081019061394b565b61219e565b604051610334939291906143c1565b60405180910390f35b34801561034957600080fd5b50610352612263565b60405161035f9190614783565b60405180910390f35b34801561037457600080fd5b5061038f600480360361038a919081019061394b565b612269565b005b34801561039d57600080fd5b506103b860048036036103b3919081019061394b565b612502565b6040516103c79392919061438a565b60405180910390f35b6103ea60048036036103e5919081019061394b565b6125cd565b005b61040660048036036104019190810190613974565b612d0d565b604051610413919061440d565b60405180910390f35b600080600160006002600089815260200190815260200160002060009054906101000a900473ffffffffffffffffffffffffffffffffffffffff1673ffffffffffffffffffffffffffffffffffffffff1673ffffffffffffffffffffffffffffffffffffffff16815260200190815260200160002060008781526020019081526020016000209050600085846040516020016104b992919061426f565b6040516020818303038152906040528051906020012090506104d9612efa565b82600d0160003373ffffffffffffffffffffffffffffffffffffffff1673ffffffffffffffffffffffffffffffffffffffff16815260200190815260200160002060008381526020019081526020016000206040518060800160405290816000820160009054906101000a900473ffffffffffffffffffffffffffffffffffffffff1673ffffffffffffffffffffffffffffffffffffffff1673ffffffffffffffffffffffffffffffffffffffff16815260200160018201548152602001600282015481526020016003820160009054906101000a900460ff1615151515815250509050600073ffffffffffffffffffffffffffffffffffffffff16816000015173ffffffffffffffffffffffffffffffffffffffff1611610630576040517f08c379a0000000000000000000000000000000000000000000000000000000008152600401610627906146e3565b60405180910390fd5b60001515816060015115151461067b576040517f08c379a0000000000000000000000000000000000000000000000000000000008152600401610672906146c3565b60405180910390fd5b82600e0154603c028360060154014211156106cb576040517f08c379a00000000000000000000000000000000000000000000000000000000081526004016106c290614703565b60405180910390fd5b60008087905080836040015110156106e957826040015191506108b7565b600073ffffffffffffffffffffffffffffffffffffffff168560080160009054906101000a900473ffffffffffffffffffffffffffffffffffffffff1673ffffffffffffffffffffffffffffffffffffffff1614156107a957338560080160006101000a81548173ffffffffffffffffffffffffffffffffffffffff021916908373ffffffffffffffffffffffffffffffffffffffff160217905550808560090181905550846007015485600a01819055508083604001510391506108b6565b846009015481111561088b57846009015485600a01819055508460080160009054906101000a900473ffffffffffffffffffffffffffffffffffffffff1673ffffffffffffffffffffffffffffffffffffffff166108fc86600901549081150290604051600060405180830381858888f19350505050158015610830573d6000803e3d6000fd5b50808560090181905550338560080160006101000a81548173ffffffffffffffffffffffffffffffffffffffff021916908373ffffffffffffffffffffffffffffffffffffffff1602179055508083604001510391506108b5565b84600a01548111156108ac578085600a0181905550826040015191506108b4565b826040015191505b5b5b5b600185600d0160003373ffffffffffffffffffffffffffffffffffffffff1673ffffffffffffffffffffffffffffffffffffffff168152602001908152602001600020600086815260200190815260200160002060030160006101000a81548160ff0219169083151502179055506000821115610976573373ffffffffffffffffffffffffffffffffffffffff166108fc839081150290604051600060405180830381858888f19350505050158015610974573d6000803e3d6000fd5b505b8195505050505050949350505050565b60008054905090565b600080600160006002600086815260200190815260200160002060009054906101000a900473ffffffffffffffffffffffffffffffffffffffff1673ffffffffffffffffffffffffffffffffffffffff1673ffffffffffffffffffffffffffffffffffffffff1681526020019081526020016000206000848152602001908152602001600020905080600b0154915050919050565b60006003600083815260200190815260200160002060009054906101000a900473ffffffffffffffffffffffffffffffffffffffff169050919050565b60006002600083815260200190815260200160002060009054906101000a900473ffffffffffffffffffffffffffffffffffffffff169050919050565b6000806000806000806000610ab28c610a24565b9050600073ffffffffffffffffffffffffffffffffffffffff168173ffffffffffffffffffffffffffffffffffffffff161115610b4957610af28c611937565b809750819850829950839a50849b50859c5050505050505060028310158015610b1c575060018211155b15610b2657610b44565b60018311158015610b38575060028210155b15610b4257610b43565b5b5b610c21565b600073ffffffffffffffffffffffffffffffffffffffff168173ffffffffffffffffffffffffffffffffffffffff161415610c2057600260008d815260200190815260200160002060009054906101000a900473ffffffffffffffffffffffffffffffffffffffff1673ffffffffffffffffffffffffffffffffffffffff163373ffffffffffffffffffffffffffffffffffffffff1614610c1f576040517f08c379a0000000000000000000000000000000000000000000000000000000008152600401610c1690614723565b60405180910390fd5b5b5b60016000600260008f815260200190815260200160002060009054906101000a900473ffffffffffffffffffffffffffffffffffffffff1673ffffffffffffffffffffffffffffffffffffffff1673ffffffffffffffffffffffffffffffffffffffff16815260200190815260200160002060008d8152602001908152602001600020600160003373ffffffffffffffffffffffffffffffffffffffff1673ffffffffffffffffffffffffffffffffffffffff16815260200190815260200160002060008e81526020019081526020016000206000820154816000015560018201816001019080546001816001161561010002031660029004610d25929190612f3a565b5060028201816002019080546001816001161561010002031660029004610d4d929190612f3a565b506003820181600301908054610d64929190612fc1565b5060048201816004019080546001816001161561010002031660029004610d8c929190612f3a565b506005820154816005015560068201548160060155600782015481600701556008820160009054906101000a900473ffffffffffffffffffffffffffffffffffffffff168160080160006101000a81548173ffffffffffffffffffffffffffffffffffffffff021916908373ffffffffffffffffffffffffffffffffffffffff16021790555060098201548160090155600a82015481600a0155600b82015481600b0155600c820160009054906101000a900460ff1681600c0160006101000a81548160ff02191690836002811115610e6157fe5b0217905550600c820160019054906101000a900460ff1681600c0160016101000a81548160ff02191690836001811115610e9757fe5b0217905550600e82015481600e0155905050600260008d815260200190815260200160002060009054906101000a900473ffffffffffffffffffffffffffffffffffffffff1673ffffffffffffffffffffffffffffffffffffffff163373ffffffffffffffffffffffffffffffffffffffff16146110655760016000600260008f815260200190815260200160002060009054906101000a900473ffffffffffffffffffffffffffffffffffffffff1673ffffffffffffffffffffffffffffffffffffffff1673ffffffffffffffffffffffffffffffffffffffff16815260200190815260200160002060008d8152602001908152602001600020600080820160009055600182016000610fab9190613031565b600282016000610fbb9190613031565b600382016000610fcb9190613079565b600482016000610fdb9190613031565b6005820160009055600682016000905560078201600090556008820160006101000a81549073ffffffffffffffffffffffffffffffffffffffff02191690556009820160009055600a820160009055600b820160009055600c820160006101000a81549060ff0219169055600c820160016101000a81549060ff0219169055600e82016000905550505b8a600160003373ffffffffffffffffffffffffffffffffffffffff1673ffffffffffffffffffffffffffffffffffffffff16815260200190815260200160002060008e81526020019081526020016000206005018190555089600160003373ffffffffffffffffffffffffffffffffffffffff1673ffffffffffffffffffffffffffffffffffffffff16815260200190815260200160002060008e81526020019081526020016000206006018190555088600160003373ffffffffffffffffffffffffffffffffffffffff1673ffffffffffffffffffffffffffffffffffffffff16815260200190815260200160002060008e81526020019081526020016000206007018190555087600160003373ffffffffffffffffffffffffffffffffffffffff1673ffffffffffffffffffffffffffffffffffffffff16815260200190815260200160002060008e8152602001908152602001600020600e01819055506000600160003373ffffffffffffffffffffffffffffffffffffffff1673ffffffffffffffffffffffffffffffffffffffff16815260200190815260200160002060008e8152602001908152602001600020600c0160006101000a81548160ff0219169083600281111561123557fe5b021790555060018060003373ffffffffffffffffffffffffffffffffffffffff1673ffffffffffffffffffffffffffffffffffffffff16815260200190815260200160002060008e8152602001908152602001600020600c0160016101000a81548160ff021916908360018111156112a957fe5b02179055506000600160003373ffffffffffffffffffffffffffffffffffffffff1673ffffffffffffffffffffffffffffffffffffffff16815260200190815260200160002060008e815260200190815260200160002060080160006101000a81548173ffffffffffffffffffffffffffffffffffffffff021916908373ffffffffffffffffffffffffffffffffffffffff1602179055506000600160003373ffffffffffffffffffffffffffffffffffffffff1673ffffffffffffffffffffffffffffffffffffffff16815260200190815260200160002060008e8152602001908152602001600020600901819055506000600160003373ffffffffffffffffffffffffffffffffffffffff1673ffffffffffffffffffffffffffffffffffffffff16815260200190815260200160002060008e8152602001908152602001600020600a01819055506000600160003373ffffffffffffffffffffffffffffffffffffffff1673ffffffffffffffffffffffffffffffffffffffff16815260200190815260200160002060008e8152602001908152602001600020600b018190555033600260008e815260200190815260200160002060006101000a81548173ffffffffffffffffffffffffffffffffffffffff021916908373ffffffffffffffffffffffffffffffffffffffff160217905550600560009054906101000a900473ffffffffffffffffffffffffffffffffffffffff1673ffffffffffffffffffffffffffffffffffffffff16631301b8c360018e336040518463ffffffff1660e01b81526004016114fe93929190614659565b600060405180830381600087803b15801561151857600080fd5b505af115801561152c573d6000803e3d6000fd5b505050507f580f886668617b1f44c5ee5e18b4ce2429618a6c99ae4efe35e5c93a2d56a40c8c338d8d8d60018e60405161156c97969594939291906148e1565b60405180910390a1505050505050505050505050565b6001600080828254019250508190555061159a61309a565b604051806101e0016040528060005481526020018b81526020018a8152602001898152602001888152602001878152602001868152602001858152602001600073ffffffffffffffffffffffffffffffffffffffff1681526020016000815260200160008152602001600081526020016000600281111561161757fe5b815260200184600181111561162857fe5b600181111561163357fe5b815260200183815250905080600160003373ffffffffffffffffffffffffffffffffffffffff1673ffffffffffffffffffffffffffffffffffffffff1681526020019081526020016000206000805481526020019081526020016000206000820151816000015560208201518160010190805190602001906116b692919061313c565b5060408201518160020190805190602001906116d392919061313c565b5060608201518160030190805190602001906116f09291906131bc565b50608082015181600401908051906020019061170d92919061313c565b5060a0820151816005015560c0820151816006015560e082015181600701556101008201518160080160006101000a81548173ffffffffffffffffffffffffffffffffffffffff021916908373ffffffffffffffffffffffffffffffffffffffff160217905550610120820151816009015561014082015181600a015561016082015181600b015561018082015181600c0160006101000a81548160ff021916908360028111156117ba57fe5b02179055506101a082015181600c0160016101000a81548160ff021916908360018111156117e457fe5b02179055506101c082015181600e015590505033600260008054815260200190815260200160002060006101000a81548173ffffffffffffffffffffffffffffffffffffffff021916908373ffffffffffffffffffffffffffffffffffffffff160217905550600560009054906101000a900473ffffffffffffffffffffffffffffffffffffffff1673ffffffffffffffffffffffffffffffffffffffff16631301b8c36001600054336040518463ffffffff1660e01b81526004016118ac939291906145c5565b600060405180830381600087803b1580156118c657600080fd5b505af11580156118da573d6000803e3d6000fd5b505050507fa11121c51c76630904d3c817b825f781b90983a55153eb7103e808de4d8394e2600054338c8c8c8c8c8c8c8c8c6040516119239b9a9998979695949392919061481a565b60405180910390a150505050505050505050565b6000806000806000806003600088815260200190815260200160002060009054906101000a900473ffffffffffffffffffffffffffffffffffffffff1673ffffffffffffffffffffffffffffffffffffffff1663f3d259046040518163ffffffff1660e01b815260040160c06040518083038186803b1580156119b957600080fd5b505afa1580156119cd573d6000803e3d6000fd5b505050506040513d601f19601f820116820180604052506119f19190810190613604565b83935095509550955095509550955091939550919395565b6000806000806000806003600088815260200190815260200160002060009054906101000a900473ffffffffffffffffffffffffffffffffffffffff1673ffffffffffffffffffffffffffffffffffffffff166358aad10b336040518263ffffffff1660e01b8152600401611a7e91906142ae565b60c060405180830381600087803b158015611a9857600080fd5b505af1158015611aac573d6000803e3d6000fd5b505050506040513d601f19601f82011682018060405250611ad0919081019061379c565b809650819750829850839950849a50859b505050505050508515611b63577fd0f1677600aaaaacca36cf8b77d1d6edbc20fcdd45f3448505d83d5ebb894813858486604051611b2193929190614353565b60405180910390a17f998a722ea209d0a6073c11326d46068c60a51af4b995c7706d4c8faf2e3cddfc8183604051611b5a92919061479e565b60405180910390a15b600560009054906101000a900473ffffffffffffffffffffffffffffffffffffffff1673ffffffffffffffffffffffffffffffffffffffff16631301b8c3600189336040518463ffffffff1660e01b8152600401611bc39392919061449d565b600060405180830381600087803b158015611bdd57600080fd5b505af1158015611bf1573d6000803e3d6000fd5b505050508515611c8e57600560009054906101000a900473ffffffffffffffffffffffffffffffffffffffff1673ffffffffffffffffffffffffffffffffffffffff16631301b8c3600189336040518463ffffffff1660e01b8152600401611c5b93929190614531565b600060405180830381600087803b158015611c7557600080fd5b505af1158015611c89573d6000803e3d6000fd5b505050505b50505050505050565b6000606080606080611ca761321c565b6000806000611cb461309a565b60016000600260008e815260200190815260200160002060009054906101000a900473ffffffffffffffffffffffffffffffffffffffff1673ffffffffffffffffffffffffffffffffffffffff1673ffffffffffffffffffffffffffffffffffffffff16815260200190815260200160002060008c8152602001908152602001600020604051806101e001604052908160008201548152602001600182018054600181600116156101000203166002900480601f016020809104026020016040519081016040528092919081815260200182805460018160011615610100020316600290048015611de65780601f10611dbb57610100808354040283529160200191611de6565b820191906000526020600020905b815481529060010190602001808311611dc957829003601f168201915b50505050508152602001600282018054600181600116156101000203166002900480601f016020809104026020016040519081016040528092919081815260200182805460018160011615610100020316600290048015611e885780601f10611e5d57610100808354040283529160200191611e88565b820191906000526020600020905b815481529060010190602001808311611e6b57829003601f168201915b5050505050815260200160038201805480602002602001604051908101604052809291908181526020016000905b82821015611f72578382906000526020600020018054600181600116156101000203166002900480601f016020809104026020016040519081016040528092919081815260200182805460018160011615610100020316600290048015611f5e5780601f10611f3357610100808354040283529160200191611f5e565b820191906000526020600020905b815481529060010190602001808311611f4157829003601f168201915b505050505081526020019060010190611eb6565b505050508152602001600482018054600181600116156101000203166002900480601f0160208091040260200160405190810160405280929190818152602001828054600181600116156101000203166002900480156120135780601f10611fe857610100808354040283529160200191612013565b820191906000526020600020905b815481529060010190602001808311611ff657829003601f168201915b505050505081526020016005820154815260200160068201548152602001600782015481526020016008820160009054906101000a900473ffffffffffffffffffffffffffffffffffffffff1673ffffffffffffffffffffffffffffffffffffffff1673ffffffffffffffffffffffffffffffffffffffff16815260200160098201548152602001600a8201548152602001600b8201548152602001600c820160009054906101000a900460ff1660028111156120cc57fe5b60028111156120d757fe5b8152602001600c820160019054906101000a900460ff1660018111156120f957fe5b600181111561210457fe5b8152602001600e82015481525050905061211c61321c565b60405180606001604052808360a0015181526020018360c001518152602001836101c00151815250905081600001518260200151836040015184606001518560800151858760e00151886101800151896101a001518797508696508595508494509a509a509a509a509a509a509a509a509a5050509193959799909294969850565b6060806060600560009054906101000a900473ffffffffffffffffffffffffffffffffffffffff1673ffffffffffffffffffffffffffffffffffffffff1663c1f526ea6001866040518363ffffffff1660e01b8152600401612201929190614428565b60006040518083038186803b15801561221957600080fd5b505afa15801561222d573d6000803e3d6000fd5b505050506040513d6000823e3d601f19601f8201168201806040525061225691908101906136dc565b9250925092509193909250565b60005481565b60006003600083815260200190815260200160002060009054906101000a900473ffffffffffffffffffffffffffffffffffffffff1673ffffffffffffffffffffffffffffffffffffffff1663a97d1b10336040518263ffffffff1660e01b81526004016122d791906142ae565b602060405180830381600087803b1580156122f157600080fd5b505af1158015612305573d6000803e3d6000fd5b505050506040513d601f19601f820116820180604052506123299190810190613773565b9050600560009054906101000a900473ffffffffffffffffffffffffffffffffffffffff1673ffffffffffffffffffffffffffffffffffffffff16631301b8c3600184336040518463ffffffff1660e01b815260040161238b939291906144e7565b600060405180830381600087803b1580156123a557600080fd5b505af11580156123b9573d6000803e3d6000fd5b5050505080156124fe576002600160006002600086815260200190815260200160002060009054906101000a900473ffffffffffffffffffffffffffffffffffffffff1673ffffffffffffffffffffffffffffffffffffffff1673ffffffffffffffffffffffffffffffffffffffff1681526020019081526020016000206000848152602001908152602001600020600c0160006101000a81548160ff0219169083600281111561246657fe5b0217905550600560009054906101000a900473ffffffffffffffffffffffffffffffffffffffff1673ffffffffffffffffffffffffffffffffffffffff16631301b8c3600184336040518463ffffffff1660e01b81526004016124cb9392919061457b565b600060405180830381600087803b1580156124e557600080fd5b505af11580156124f9573d6000803e3d6000fd5b505050505b5050565b600080600080600160006002600088815260200190815260200160002060009054906101000a900473ffffffffffffffffffffffffffffffffffffffff1673ffffffffffffffffffffffffffffffffffffffff1673ffffffffffffffffffffffffffffffffffffffff168152602001908152602001600020600086815260200190815260200160002090508060080160009054906101000a900473ffffffffffffffffffffffffffffffffffffffff16816009015482600a0154829250935093509350509193909250565b6000600160006002600085815260200190815260200160002060009054906101000a900473ffffffffffffffffffffffffffffffffffffffff1673ffffffffffffffffffffffffffffffffffffffff1673ffffffffffffffffffffffffffffffffffffffff168152602001908152602001600020600083815260200190815260200160002090506000600281111561266157fe5b81600c0160009054906101000a900460ff16600281111561267e57fe5b146126be576040517f08c379a00000000000000000000000000000000000000000000000000000000081526004016126b590614763565b60405180910390fd5b6002600083815260200190815260200160002060009054906101000a900473ffffffffffffffffffffffffffffffffffffffff1673ffffffffffffffffffffffffffffffffffffffff163373ffffffffffffffffffffffffffffffffffffffff161415612760576040517f08c379a000000000000000000000000000000000000000000000000000000000815260040161275790614743565b60405180910390fd5b8060080160009054906101000a900473ffffffffffffffffffffffffffffffffffffffff1673ffffffffffffffffffffffffffffffffffffffff163373ffffffffffffffffffffffffffffffffffffffff1614156127f3576040517f08c379a00000000000000000000000000000000000000000000000000000000081526004016127ea906146a3565b60405180910390fd5b600073ffffffffffffffffffffffffffffffffffffffff168160080160009054906101000a900473ffffffffffffffffffffffffffffffffffffffff1673ffffffffffffffffffffffffffffffffffffffff1614156128be57600281600c0160006101000a81548160ff0219169083600281111561286d57fe5b02179055503373ffffffffffffffffffffffffffffffffffffffff166108fc349081150290604051600060405180830381858888f193505050501580156128b8573d6000803e3d6000fd5b50612ab5565b60003482600a015401836002600086815260200190815260200160002060009054906101000a900473ffffffffffffffffffffffffffffffffffffffff168460080160009054906101000a900473ffffffffffffffffffffffffffffffffffffffff16333460405161292f9061323e565b61293d9594939291906147c7565b6040518091039082f080158015612958573d6000803e3d6000fd5b50905090507fbfc8fbf312adc5e54803c6ea04d6486ed67524b6e8009de8d20976cf810cc37f8260080160009054906101000a900473ffffffffffffffffffffffffffffffffffffffff163484600a0154016040516129b892919061432a565b60405180910390a1806003600085815260200190815260200160002060006101000a81548173ffffffffffffffffffffffffffffffffffffffff021916908373ffffffffffffffffffffffffffffffffffffffff160217905550600182600c0160006101000a81548160ff02191690836002811115612a3357fe5b0217905550600082600a015483600901540390508260080160009054906101000a900473ffffffffffffffffffffffffffffffffffffffff1673ffffffffffffffffffffffffffffffffffffffff166108fc829081150290604051600060405180830381858888f19350505050158015612ab1573d6000803e3d6000fd5b5050505b600560009054906101000a900473ffffffffffffffffffffffffffffffffffffffff1673ffffffffffffffffffffffffffffffffffffffff16631301b8c3600184336040518463ffffffff1660e01b8152600401612b159392919061460f565b600060405180830381600087803b158015612b2f57600080fd5b505af1158015612b43573d6000803e3d6000fd5b50505050600080600060603073ffffffffffffffffffffffffffffffffffffffff1663ce818ea9876040518263ffffffff1660e01b8152600401612b879190614783565b60606040518083038186803b158015612b9f57600080fd5b505afa158015612bb3573d6000803e3d6000fd5b505050506040513d601f19601f82011682018060405250612bd7919081019061368d565b809450819550829650505050600073ffffffffffffffffffffffffffffffffffffffff168473ffffffffffffffffffffffffffffffffffffffff161115612c3857604051806060016040528060248152602001615d29602491399050612c71565b6040518060400160405280600c81526020017fe697a0e4babae587bae4bbb7000000000000000000000000000000000000000081525090505b600560009054906101000a900473ffffffffffffffffffffffffffffffffffffffff1673ffffffffffffffffffffffffffffffffffffffff16631301b8c360018833856040518563ffffffff1660e01b8152600401612cd39493929190614451565b600060405180830381600087803b158015612ced57600080fd5b505af1158015612d01573d6000803e3d6000fd5b50505050505050505050565b600080600160006002600087815260200190815260200160002060009054906101000a900473ffffffffffffffffffffffffffffffffffffffff1673ffffffffffffffffffffffffffffffffffffffff1673ffffffffffffffffffffffffffffffffffffffff1681526020019081526020016000206000858152602001908152602001600020905060405180608001604052803373ffffffffffffffffffffffffffffffffffffffff1681526020018581526020013481526020016000151581525081600d0160003373ffffffffffffffffffffffffffffffffffffffff1673ffffffffffffffffffffffffffffffffffffffff168152602001908152602001600020600085815260200190815260200160002060008201518160000160006101000a81548173ffffffffffffffffffffffffffffffffffffffff021916908373ffffffffffffffffffffffffffffffffffffffff160217905550602082015181600101556040820151816002015560608201518160030160006101000a81548160ff021916908315150217905550905050600181600b01600082825401925050819055507f45401769c1d58f70bd6b63e1a66bfc17d712ce0dc4ffb8d2dd0ad7177d56a386816000015433604051612ee792919061479e565b60405180910390a1600191505092915050565b6040518060800160405280600073ffffffffffffffffffffffffffffffffffffffff16815260200160008152602001600081526020016000151581525090565b828054600181600116156101000203166002900490600052602060002090601f016020900481019282601f10612f735780548555612fb0565b82800160010185558215612fb057600052602060002091601f016020900482015b82811115612faf578254825591600101919060010190612f94565b5b509050612fbd919061324b565b5090565b8280548282559060005260206000209081019282156130205760005260206000209182015b8281111561301f578282908054600181600116156101000203166002900461300f929190612f3a565b5091600101919060010190612fe6565b5b50905061302d9190613270565b5090565b50805460018160011615610100020316600290046000825580601f106130575750613076565b601f016020900490600052602060002090810190613075919061324b565b5b50565b50805460008255906000526020600020908101906130979190613270565b50565b604051806101e001604052806000815260200160608152602001606081526020016060815260200160608152602001600081526020016000815260200160008152602001600073ffffffffffffffffffffffffffffffffffffffff1681526020016000815260200160008152602001600081526020016000600281111561311d57fe5b81526020016000600181111561312f57fe5b8152602001600081525090565b828054600181600116156101000203166002900490600052602060002090601f016020900481019282601f1061317d57805160ff19168380011785556131ab565b828001600101855582156131ab579182015b828111156131aa57825182559160200191906001019061318f565b5b5090506131b8919061324b565b5090565b82805482825590600052602060002090810192821561320b579160200282015b8281111561320a5782518290805190602001906131fa92919061313c565b50916020019190600101906131dc565b5b5090506132189190613270565b5090565b6040518060600160405280600390602082028038833980820191505090505090565b610f3f80614dea83390190565b61326d91905b80821115613269576000816000905550600101613251565b5090565b90565b61329991905b80821115613295576000818161328c9190613031565b50600101613276565b5090565b90565b6000815190506132ab81614d76565b92915050565b6000815190506132c081614d8d565b92915050565b600082601f8301126132d757600080fd5b81516132ea6132e582614a28565b6149fb565b9150818183526020840193506020810190508385602084028201111561330f57600080fd5b60005b8381101561333f5781613325888261329c565b845260208401935060208301925050600181019050613312565b5050505092915050565b600082601f83011261335a57600080fd5b813561336d61336882614a50565b6149fb565b9150818183526020840193506020810190508360005b838110156133b3578135860161339988826134de565b845260208401935060208301925050600181019050613383565b5050505092915050565b600082601f8301126133ce57600080fd5b81516133e16133dc82614a50565b6149fb565b9150818183526020840193506020810190508360005b83811015613427578151860161340d8882613532565b8452602084019350602083019250506001810190506133f7565b5050505092915050565b600082601f83011261344257600080fd5b815161345561345082614a78565b6149fb565b9150818183526020840193506020810190508385602084028201111561347a57600080fd5b60005b838110156134aa578161349088826135ef565b84526020840193506020830192505060018101905061347d565b5050505092915050565b6000815190506134c381614da4565b92915050565b6000813590506134d881614dbb565b92915050565b600082601f8301126134ef57600080fd5b81356135026134fd82614aa0565b6149fb565b9150808252602083016020830185838301111561351e57600080fd5b613529838284614d09565b50505092915050565b600082601f83011261354357600080fd5b815161355661355182614aa0565b6149fb565b9150808252602083016020830185838301111561357257600080fd5b61357d838284614d18565b50505092915050565b600082601f83011261359757600080fd5b81356135aa6135a582614acc565b6149fb565b915080825260208301602083018583830111156135c657600080fd5b6135d1838284614d09565b50505092915050565b6000813590506135e981614dd2565b92915050565b6000815190506135fe81614dd2565b92915050565b60008060008060008060c0878903121561361d57600080fd5b600061362b89828a016132b1565b965050602061363c89828a016132b1565b955050604061364d89828a016132b1565b945050606061365e89828a016134b4565b935050608061366f89828a016135ef565b92505060a061368089828a016135ef565b9150509295509295509295565b6000806000606084860312156136a257600080fd5b60006136b08682870161329c565b93505060206136c1868287016135ef565b92505060406136d2868287016135ef565b9150509250925092565b6000806000606084860312156136f157600080fd5b600084015167ffffffffffffffff81111561370b57600080fd5b613717868287016132c6565b935050602084015167ffffffffffffffff81111561373457600080fd5b613740868287016133bd565b925050604084015167ffffffffffffffff81111561375d57600080fd5b61376986828701613431565b9150509250925092565b60006020828403121561378557600080fd5b6000613793848285016134b4565b91505092915050565b60008060008060008060c087890312156137b557600080fd5b60006137c389828a016134b4565b96505060206137d489828a016132b1565b95505060406137e589828a016132b1565b94505060606137f689828a016135ef565b935050608061380789828a016132b1565b92505060a061381889828a016135ef565b9150509295509295509295565b60008060008060008060008060006101208a8c03121561384457600080fd5b60008a013567ffffffffffffffff81111561385e57600080fd5b61386a8c828d01613586565b99505060208a013567ffffffffffffffff81111561388757600080fd5b6138938c828d01613586565b98505060408a013567ffffffffffffffff8111156138b057600080fd5b6138bc8c828d01613349565b97505060608a013567ffffffffffffffff8111156138d957600080fd5b6138e58c828d01613586565b96505060806138f68c828d016135da565b95505060a06139078c828d016135da565b94505060c06139188c828d016135da565b93505060e06139298c828d016135da565b92505061010061393b8c828d016135da565b9150509295985092959850929598565b60006020828403121561395d57600080fd5b600061396b848285016135da565b91505092915050565b6000806040838503121561398757600080fd5b6000613995858286016135da565b92505060206139a6858286016134c9565b9150509250929050565b600080600080608085870312156139c657600080fd5b60006139d4878288016135da565b945050602085013567ffffffffffffffff8111156139f157600080fd5b6139fd87828801613586565b9350506040613a0e878288016135da565b925050606085013567ffffffffffffffff811115613a2b57600080fd5b613a3787828801613586565b91505092959194509250565b600080600080600060a08688031215613a5b57600080fd5b6000613a69888289016135da565b9550506020613a7a888289016135da565b9450506040613a8b888289016135da565b9350506060613a9c888289016135da565b9250506080613aad888289016135da565b9150509295509295909350565b6000613ac68383613b1c565b60208301905092915050565b6000613ade8383613d68565b905092915050565b6000613af28383614251565b60208301905092915050565b613b0781614c9d565b82525050565b613b1681614c25565b82525050565b613b2581614c13565b82525050565b613b3481614c13565b82525050565b6000613b4582614b32565b613b4f8185614ba8565b9350613b5a83614af8565b8060005b83811015613b8b578151613b728882613aba565b9750613b7d83614b74565b925050600181019050613b5e565b5085935050505092915050565b6000613ba382614b3d565b613bad8185614bb9565b935083602082028501613bbf85614b08565b8060005b85811015613bfb5784840389528151613bdc8582613ad2565b9450613be783614b81565b925060208a01995050600181019050613bc3565b50829750879550505050505092915050565b613c1681614b48565b613c208184614bca565b9250613c2b82614b18565b8060005b83811015613c5c578151613c438782613ae6565b9650613c4e83614b8e565b925050600181019050613c2f565b505050505050565b6000613c6f82614b53565b613c798185614bd5565b9350613c8483614b22565b8060005b83811015613cb5578151613c9c8882613ae6565b9750613ca783614b9b565b925050600181019050613c88565b5085935050505092915050565b613ccb81614c37565b82525050565b613cda81614caf565b82525050565b613ce981614cc1565b82525050565b613cf881614cd3565b82525050565b6000613d0982614b69565b613d138185614bf7565b9350613d23818560208601614d18565b613d2c81614d4b565b840191505092915050565b6000613d4282614b69565b613d4c8185614c08565b9350613d5c818560208601614d18565b80840191505092915050565b6000613d7382614b5e565b613d7d8185614be6565b9350613d8d818560208601614d18565b613d9681614d4b565b840191505092915050565b6000613dae602283614bf7565b91507f5b4552524f525d43616c6c65722073686f756c64206e6f74206265206275796560008301527f722e0000000000000000000000000000000000000000000000000000000000006020830152604082019050919050565b6000613e14601b83614bf7565b91507fe5908ce6848fe8b584e98791e4bb98e6acbee7bb99e58d96e5aeb600000000006000830152602082019050919050565b6000613e54601b83614bf7565b91507fe5908ce6848fe8b584e98791e98080e8bf98e7bb99e4b9b0e5aeb600000000006000830152602082019050919050565b6000613e94602783614bf7565b91507fe68998e7aea1e59088e7baa6e5b7b2e5b086e8b584e98791e4baa4e4bb98e7bb60008301527f99e58d96e5aeb6000000000000000000000000000000000000000000000000006020830152604082019050919050565b6000613efa602383614bf7565b91507f5b4552524f525d204249642073686f756c64206e6f742062652072657665616c60008301527f65642e00000000000000000000000000000000000000000000000000000000006020830152604082019050919050565b6000613f60602783614bf7565b91507fe68998e7aea1e59088e7baa6e5b7b2e5b086e8b584e98791e98080e8bf98e7bb60008301527f99e4b9b0e5aeb6000000000000000000000000000000000000000000000000006020830152604082019050919050565b6000613fc6601283614bf7565b91507fe58d96e5aeb6e4b88ae69eb6e59586e5938100000000000000000000000000006000830152602082019050919050565b6000614006601c83614bf7565b91507f5b4552524f525d204269646465722073686f756c642065786973742e000000006000830152602082019050919050565b6000614046603c83614bf7565b91507f5b4552524f525d2043757272656e742074696d652073686f756c64206265206560008301527f61726c696572207468616e2072657665616c20656e642074696d652e000000006020830152604082019050919050565b60006140ac602f83614bf7565b91507f5b4552524f525d204f6e6c79206f776e65722063616e2073656c6c207468697360008301527f2070726f6475637420616761696e2e00000000000000000000000000000000006020830152604082019050919050565b6000614112602383614bf7565b91507f5b4552524f525d43616c6c65722073686f756c64206e6f742062652073656c6c60008301527f65722e00000000000000000000000000000000000000000000000000000000006020830152604082019050919050565b6000614178602583614bf7565b91507f5b4552524f525d50726f64756374207374617475732073686f756c642062652060008301527f6f70656e2e0000000000000000000000000000000000000000000000000000006020830152604082019050919050565b60006141de600f83614bf7565b91507fe68890e4b8bae4bbb2e8a381e4baba00000000000000000000000000000000006000830152602082019050919050565b600061421e600c83614bf7565b91507fe8bdace58d96e59586e5938100000000000000000000000000000000000000006000830152602082019050919050565b61425a81614c93565b82525050565b61426981614c93565b82525050565b600061427b8285613d37565b91506142878284613d37565b91508190509392505050565b60006020820190506142a86000830184613b2b565b92915050565b60006020820190506142c36000830184613afe565b92915050565b600060c0820190506142de6000830189613b0d565b6142eb6020830188613b0d565b6142f86040830187613b2b565b6143056060830186613cc2565b6143126080830185614260565b61431f60a0830184614260565b979650505050505050565b600060408201905061433f6000830185613afe565b61434c6020830184614260565b9392505050565b60006060820190506143686000830186613afe565b6143756020830185614260565b6143826040830184613afe565b949350505050565b600060608201905061439f6000830186613b2b565b6143ac6020830185614260565b6143b96040830184614260565b949350505050565b600060608201905081810360008301526143db8186613b3a565b905081810360208301526143ef8185613b98565b905081810360408301526144038184613c64565b9050949350505050565b60006020820190506144226000830184613cc2565b92915050565b600060408201905061443d6000830185613cef565b61444a6020830184614260565b9392505050565b60006080820190506144666000830187613cef565b6144736020830186614260565b6144806040830185613afe565b81810360608301526144928184613cfe565b905095945050505050565b60006080820190506144b26000830186613cef565b6144bf6020830185614260565b6144cc6040830184613afe565b81810360608301526144dd81613e07565b9050949350505050565b60006080820190506144fc6000830186613cef565b6145096020830185614260565b6145166040830184613afe565b818103606083015261452781613e47565b9050949350505050565b60006080820190506145466000830186613cef565b6145536020830185614260565b6145606040830184613afe565b818103606083015261457181613e87565b9050949350505050565b60006080820190506145906000830186613cef565b61459d6020830185614260565b6145aa6040830184613afe565b81810360608301526145bb81613f53565b9050949350505050565b60006080820190506145da6000830186613cef565b6145e76020830185614260565b6145f46040830184613afe565b818103606083015261460581613fb9565b9050949350505050565b60006080820190506146246000830186613cef565b6146316020830185614260565b61463e6040830184613afe565b818103606083015261464f816141d1565b9050949350505050565b600060808201905061466e6000830186613cef565b61467b6020830185614260565b6146886040830184613afe565b818103606083015261469981614211565b9050949350505050565b600060208201905081810360008301526146bc81613da1565b9050919050565b600060208201905081810360008301526146dc81613eed565b9050919050565b600060208201905081810360008301526146fc81613ff9565b9050919050565b6000602082019050818103600083015261471c81614039565b9050919050565b6000602082019050818103600083015261473c8161409f565b9050919050565b6000602082019050818103600083015261475c81614105565b9050919050565b6000602082019050818103600083015261477c8161416b565b9050919050565b60006020820190506147986000830184614260565b92915050565b60006040820190506147b36000830185614260565b6147c06020830184613afe565b9392505050565b600060a0820190506147dc6000830188614260565b6147e96020830187613b0d565b6147f66040830186613b0d565b6148036060830185613b0d565b6148106080830184614260565b9695505050505050565b600061016082019050614830600083018e614260565b61483d602083018d613afe565b818103604083015261484f818c613cfe565b90508181036060830152614863818b613cfe565b90508181036080830152614877818a613b98565b905081810360a083015261488b8189613cfe565b905061489a60c0830188614260565b6148a760e0830187614260565b6148b5610100830186614260565b6148c3610120830185614260565b6148d1610140830184614260565b9c9b505050505050505050505050565b600060e0820190506148f6600083018a614260565b6149036020830189613afe565b6149106040830188614260565b61491d6060830187614260565b61492a6080830186614260565b61493760a0830185613cef565b61494460c0830184614260565b98975050505050505050565b600061016082019050614966600083018c614260565b8181036020830152614978818b613cfe565b9050818103604083015261498c818a613cfe565b905081810360608301526149a08189613b98565b905081810360808301526149b48188613cfe565b90506149c360a0830187613c0d565b6149d1610100830186614260565b6149df610120830185613ce0565b6149ed610140830184613cd1565b9a9950505050505050505050565b6000604051905081810181811067ffffffffffffffff82111715614a1e57600080fd5b8060405250919050565b600067ffffffffffffffff821115614a3f57600080fd5b602082029050602081019050919050565b600067ffffffffffffffff821115614a6757600080fd5b602082029050602081019050919050565b600067ffffffffffffffff821115614a8f57600080fd5b602082029050602081019050919050565b600067ffffffffffffffff821115614ab757600080fd5b601f19601f8301169050602081019050919050565b600067ffffffffffffffff821115614ae357600080fd5b601f19601f8301169050602081019050919050565b6000819050602082019050919050565b6000819050602082019050919050565b6000819050919050565b6000819050602082019050919050565b600081519050919050565b600081519050919050565b600060039050919050565b600081519050919050565b600081519050919050565b600081519050919050565b6000602082019050919050565b6000602082019050919050565b6000602082019050919050565b6000602082019050919050565b600082825260208201905092915050565b600082825260208201905092915050565b600081905092915050565b600082825260208201905092915050565b600082825260208201905092915050565b600082825260208201905092915050565b600081905092915050565b6000614c1e82614c73565b9050919050565b6000614c3082614c73565b9050919050565b60008115159050919050565b6000819050919050565b6000819050614c5b82614d5c565b919050565b6000819050614c6e82614d69565b919050565b600073ffffffffffffffffffffffffffffffffffffffff82169050919050565b6000819050919050565b6000614ca882614ce5565b9050919050565b6000614cba82614c4d565b9050919050565b6000614ccc82614c60565b9050919050565b6000614cde82614c93565b9050919050565b6000614cf082614cf7565b9050919050565b6000614d0282614c73565b9050919050565b82818337600083830152505050565b60005b83811015614d36578082015181840152602081019050614d1b565b83811115614d45576000848401525b50505050565b6000601f19601f8301169050919050565b60028110614d6657fe5b50565b60038110614d7357fe5b50565b614d7f81614c13565b8114614d8a57600080fd5b50565b614d9681614c25565b8114614da157600080fd5b50565b614dad81614c37565b8114614db857600080fd5b50565b614dc481614c43565b8114614dcf57600080fd5b50565b614ddb81614c93565b8114614de657600080fd5b5056fe6080604052604051610f3f380380610f3f833981810160405260a081101561002657600080fd5b8101908080519060200190929190805190602001909291908051906020019092919080519060200190929190805190602001909291905050508460008190555083600160006101000a81548173ffffffffffffffffffffffffffffffffffffffff021916908373ffffffffffffffffffffffffffffffffffffffff16021790555082600260006101000a81548173ffffffffffffffffffffffffffffffffffffffff021916908373ffffffffffffffffffffffffffffffffffffffff16021790555081600360006101000a81548173ffffffffffffffffffffffffffffffffffffffff021916908373ffffffffffffffffffffffffffffffffffffffff16021790555080340360048190555080600581905550600060078190555060006009819055506000600a60006101000a81548160ff0219169083151502179055505050505050610dc7806101786000396000f3fe608060405234801561001057600080fd5b50600436106100a95760003560e01c8063a97d1b1011610071578063a97d1b1014610281578063aa8c217c146102dd578063b8d08db2146102fb578063c5ce391114610319578063f3d2590414610337578063fe25e00a14610400576100a9565b806308551a53146100ae5780630bda4dbf146100f857806358aad10b146101165780637150d8ae146102195780639d6d6d1114610263575b600080fd5b6100b661044a565b604051808273ffffffffffffffffffffffffffffffffffffffff1673ffffffffffffffffffffffffffffffffffffffff16815260200191505060405180910390f35b610100610470565b6040518082815260200191505060405180910390f35b6101586004803603602081101561012c57600080fd5b81019080803573ffffffffffffffffffffffffffffffffffffffff169060200190929190505050610476565b60405180871515151581526020018673ffffffffffffffffffffffffffffffffffffffff1673ffffffffffffffffffffffffffffffffffffffff1681526020018573ffffffffffffffffffffffffffffffffffffffff1673ffffffffffffffffffffffffffffffffffffffff1681526020018481526020018373ffffffffffffffffffffffffffffffffffffffff1673ffffffffffffffffffffffffffffffffffffffff168152602001828152602001965050505050505060405180910390f35b6102216108b7565b604051808273ffffffffffffffffffffffffffffffffffffffff1673ffffffffffffffffffffffffffffffffffffffff16815260200191505060405180910390f35b61026b6108dd565b6040518082815260200191505060405180910390f35b6102c36004803603602081101561029757600080fd5b81019080803573ffffffffffffffffffffffffffffffffffffffff1690602001909291905050506108e3565b604051808215151515815260200191505060405180910390f35b6102e5610c66565b6040518082815260200191505060405180910390f35b610303610c6c565b6040518082815260200191505060405180910390f35b610321610c72565b6040518082815260200191505060405180910390f35b61033f610c78565b604051808773ffffffffffffffffffffffffffffffffffffffff1673ffffffffffffffffffffffffffffffffffffffff1681526020018673ffffffffffffffffffffffffffffffffffffffff1673ffffffffffffffffffffffffffffffffffffffff1681526020018573ffffffffffffffffffffffffffffffffffffffff1673ffffffffffffffffffffffffffffffffffffffff16815260200184151515158152602001838152602001828152602001965050505050505060405180910390f35b610408610d14565b604051808273ffffffffffffffffffffffffffffffffffffffff1673ffffffffffffffffffffffffffffffffffffffff16815260200191505060405180910390f35b600160009054906101000a900473ffffffffffffffffffffffffffffffffffffffff1681565b60095481565b600080600080600080600a60009054906101000a900460ff16156104e5576040517f08c379a0000000000000000000000000000000000000000000000000000000008152600401808060200182810382526025815260200180610d6e6025913960400191505060405180910390fd5b600160009054906101000a900473ffffffffffffffffffffffffffffffffffffffff1673ffffffffffffffffffffffffffffffffffffffff168773ffffffffffffffffffffffffffffffffffffffff16148061058e5750600260009054906101000a900473ffffffffffffffffffffffffffffffffffffffff1673ffffffffffffffffffffffffffffffffffffffff168773ffffffffffffffffffffffffffffffffffffffff16145b806105e65750600360009054906101000a900473ffffffffffffffffffffffffffffffffffffffff1673ffffffffffffffffffffffffffffffffffffffff168773ffffffffffffffffffffffffffffffffffffffff16145b61063b576040517f08c379a0000000000000000000000000000000000000000000000000000000008152600401808060200182810382526033815260200180610d3b6033913960400191505060405180910390fd5b600660008873ffffffffffffffffffffffffffffffffffffffff1673ffffffffffffffffffffffffffffffffffffffff16815260200190815260200160002060009054906101000a900460ff166106f6576001600660008973ffffffffffffffffffffffffffffffffffffffff1673ffffffffffffffffffffffffffffffffffffffff16815260200190815260200160002060006101000a81548160ff02191690831515021790555060016007600082825401925050819055505b6002600754106108ad57600060646004548161070e57fe5b0490506000600a6005548161071f57fe5b04905060008183106107315781610733565b825b9050600160009054906101000a900473ffffffffffffffffffffffffffffffffffffffff1673ffffffffffffffffffffffffffffffffffffffff166108fc82600454039081150290604051600060405180830381858888f193505050501580156107a1573d6000803e3d6000fd5b50600360009054906101000a900473ffffffffffffffffffffffffffffffffffffffff1673ffffffffffffffffffffffffffffffffffffffff166108fc82600554019081150290604051600060405180830381858888f1935050505015801561080e573d6000803e3d6000fd5b506001600a60006101000a81548160ff0219169083151502179055506001600260009054906101000a900473ffffffffffffffffffffffffffffffffffffffff16600160009054906101000a900473ffffffffffffffffffffffffffffffffffffffff16600454600360009054906101000a900473ffffffffffffffffffffffffffffffffffffffff16859850985098509850985098505050506108ae565b5b91939550919395565b600260009054906101000a900473ffffffffffffffffffffffffffffffffffffffff1681565b60055481565b6000600a60009054906101000a900460ff161561094b576040517f08c379a0000000000000000000000000000000000000000000000000000000008152600401808060200182810382526025815260200180610d6e6025913960400191505060405180910390fd5b600160009054906101000a900473ffffffffffffffffffffffffffffffffffffffff1673ffffffffffffffffffffffffffffffffffffffff168273ffffffffffffffffffffffffffffffffffffffff1614806109f45750600260009054906101000a900473ffffffffffffffffffffffffffffffffffffffff1673ffffffffffffffffffffffffffffffffffffffff168273ffffffffffffffffffffffffffffffffffffffff16145b80610a4c5750600360009054906101000a900473ffffffffffffffffffffffffffffffffffffffff1673ffffffffffffffffffffffffffffffffffffffff168273ffffffffffffffffffffffffffffffffffffffff16145b610aa1576040517f08c379a0000000000000000000000000000000000000000000000000000000008152600401808060200182810382526033815260200180610d3b6033913960400191505060405180910390fd5b600860008373ffffffffffffffffffffffffffffffffffffffff1673ffffffffffffffffffffffffffffffffffffffff16815260200190815260200160002060009054906101000a900460ff16610b5c576001600860008473ffffffffffffffffffffffffffffffffffffffff1673ffffffffffffffffffffffffffffffffffffffff16815260200190815260200160002060006101000a81548160ff02191690831515021790555060016009600082825401925050819055505b600260095410610c6057600260009054906101000a900473ffffffffffffffffffffffffffffffffffffffff1673ffffffffffffffffffffffffffffffffffffffff166108fc6004549081150290604051600060405180830381858888f19350505050158015610bd0573d6000803e3d6000fd5b50600360009054906101000a900473ffffffffffffffffffffffffffffffffffffffff1673ffffffffffffffffffffffffffffffffffffffff166108fc6005549081150290604051600060405180830381858888f19350505050158015610c3b573d6000803e3d6000fd5b506001600a60006101000a81548160ff02191690831515021790555060019050610c61565b5b919050565b60045481565b60075481565b60005481565b600080600080600080600160009054906101000a900473ffffffffffffffffffffffffffffffffffffffff16600260009054906101000a900473ffffffffffffffffffffffffffffffffffffffff16600360009054906101000a900473ffffffffffffffffffffffffffffffffffffffff16600a60009054906101000a900460ff16600754600954955095509550955095509550909192939495565b600360009054906101000a900473ffffffffffffffffffffffffffffffffffffffff168156fe5b4552524f525d43616c6c65722073686f756c642062652073656c6c6572206f72206275796572206f7220617262697465722e5b4552524f525d46756e64732073686f756c64206e6f74206265206469736275727365642ea265627a7a72315820e9dfcd4a87e897494d2767dd04fc460514b105523a227ddd311c2ce93e605d9264736f6c63430005100032e5ad98e59ca8e69c80e9ab98e587bae4bbb7e4babaefbc8ce68b8de58d96e99481e5ae9aa365627a7a7231582024fedf0b0c866a6b089efaf0122e4fc3861dda5c19c30710bedf528b9725ca2e6c6578706572696d656e74616cf564736f6c63430005100040608060405234801561001057600080fd5b5060008081905550610bf3806100276000396000f3fe608060405234801561001057600080fd5b506004361061004c5760003560e01c80631301b8c3146100515780631939077c1461006d578063977af4071461008b578063c1f526ea146100a9575b600080fd5b61006b6004803603610066919081019061067f565b6100db565b005b61007561027f565b60405161008291906109a7565b60405180910390f35b610093610285565b6040516100a091906109a7565b60405180910390f35b6100c360048036036100be9190810190610643565b61028e565b6040516100d29392919061093b565b60405180910390f35b60018414806100ea5750600284145b610129576040517f08c379a000000000000000000000000000000000000000000000000000000000815260040161012090610987565b60405180910390fd5b600160008082825401925050819055506001600085815260200190815260200160002060008481526020019081526020016000206000018290806001815401808255809150509060018203906000526020600020016000909192909190916101000a81548173ffffffffffffffffffffffffffffffffffffffff021916908373ffffffffffffffffffffffffffffffffffffffff16021790555050600160008581526020019081526020016000206000848152602001908152602001600020600101819080600181540180825580915050906001820390600052602060002001600090919290919091509080519060200190610226929190610520565b505060016000858152602001908152602001600020600084815260200190815260200160002060020142908060018154018082558091505090600182039060005260206000200160009091929091909150555050505050565b60005481565b60008054905090565b606080606060018514806102a25750600285145b6102e1576040517f08c379a00000000000000000000000000000000000000000000000000000000081526004016102d890610987565b60405180910390fd5b600160008681526020019081526020016000206000858152602001908152602001600020600001600160008781526020019081526020016000206000868152602001908152602001600020600101600160008881526020019081526020016000206000878152602001908152602001600020600201828054806020026020016040519081016040528092919081815260200182805480156103d757602002820191906000526020600020905b8160009054906101000a900473ffffffffffffffffffffffffffffffffffffffff1673ffffffffffffffffffffffffffffffffffffffff168152602001906001019080831161038d575b5050505050925081805480602002602001604051908101604052809291908181526020016000905b828210156104bb578382906000526020600020018054600181600116156101000203166002900480601f0160208091040260200160405190810160405280929190818152602001828054600181600116156101000203166002900480156104a75780601f1061047c576101008083540402835291602001916104a7565b820191906000526020600020905b81548152906001019060200180831161048a57829003601f168201915b5050505050815260200190600101906103ff565b5050505091508080548060200260200160405190810160405280929190818152602001828054801561050c57602002820191906000526020600020905b8154815260200190600101908083116104f8575b505050505090509250925092509250925092565b828054600181600116156101000203166002900490600052602060002090601f016020900481019282601f1061056157805160ff191683800117855561058f565b8280016001018555821561058f579182015b8281111561058e578251825591602001919060010190610573565b5b50905061059c91906105a0565b5090565b6105c291905b808211156105be5760008160009055506001016105a6565b5090565b90565b6000813590506105d481610b82565b92915050565b600082601f8301126105eb57600080fd5b81356105fe6105f9826109ef565b6109c2565b9150808252602083016020830185838301111561061a57600080fd5b610625838284610b2f565b50505092915050565b60008135905061063d81610b99565b92915050565b6000806040838503121561065657600080fd5b60006106648582860161062e565b92505060206106758582860161062e565b9150509250929050565b6000806000806080858703121561069557600080fd5b60006106a38782880161062e565b94505060206106b48782880161062e565b93505060406106c5878288016105c5565b925050606085013567ffffffffffffffff8111156106e257600080fd5b6106ee878288016105da565b91505092959194509250565b6000610706838361073e565b60208301905092915050565b600061071e838361087e565b905092915050565b6000610732838361091d565b60208301905092915050565b61074781610af3565b82525050565b600061075882610a4b565b6107628185610a9e565b935061076d83610a1b565b8060005b8381101561079e57815161078588826106fa565b975061079083610a77565b925050600181019050610771565b5085935050505092915050565b60006107b682610a56565b6107c08185610aaf565b9350836020820285016107d285610a2b565b8060005b8581101561080e57848403895281516107ef8582610712565b94506107fa83610a84565b925060208a019950506001810190506107d6565b50829750879550505050505092915050565b600061082b82610a61565b6108358185610ac0565b935061084083610a3b565b8060005b838110156108715781516108588882610726565b975061086383610a91565b925050600181019050610844565b5085935050505092915050565b600061088982610a6c565b6108938185610ad1565b93506108a3818560208601610b3e565b6108ac81610b71565b840191505092915050565b60006108c4603483610ae2565b91507f5b4552524f525d2054686520636c617373206f662074726163696e672073686f60008301527f756c6420626520657175616c2031206f7220322e0000000000000000000000006020830152604082019050919050565b61092681610b25565b82525050565b61093581610b25565b82525050565b60006060820190508181036000830152610955818661074d565b9050818103602083015261096981856107ab565b9050818103604083015261097d8184610820565b9050949350505050565b600060208201905081810360008301526109a0816108b7565b9050919050565b60006020820190506109bc600083018461092c565b92915050565b6000604051905081810181811067ffffffffffffffff821117156109e557600080fd5b8060405250919050565b600067ffffffffffffffff821115610a0657600080fd5b601f19601f8301169050602081019050919050565b6000819050602082019050919050565b6000819050602082019050919050565b6000819050602082019050919050565b600081519050919050565b600081519050919050565b600081519050919050565b600081519050919050565b6000602082019050919050565b6000602082019050919050565b6000602082019050919050565b600082825260208201905092915050565b600082825260208201905092915050565b600082825260208201905092915050565b600082825260208201905092915050565b600082825260208201905092915050565b6000610afe82610b05565b9050919050565b600073ffffffffffffffffffffffffffffffffffffffff82169050919050565b6000819050919050565b82818337600083830152505050565b60005b83811015610b5c578082015181840152602081019050610b41565b83811115610b6b576000848401525b50505050565b6000601f19601f8301169050919050565b610b8b81610af3565b8114610b9657600080fd5b50565b610ba281610b25565b8114610bad57600080fd5b5056fea365627a7a723158209380a69c369b4a475c6370d5b70adffcddd68d144c199dd824bc74b0ec91c8ee6c6578706572696d656e74616cf564736f6c63430005100040",
  "source": "// SPDX-License-Identifier: MIT\npragma solidity >=0.4.21 <8.10.0;\npragma experimental ABIEncoderV2;\n\nimport \"./Escrow.sol\";\nimport \"./Tracing.sol\";\n\n// pragma solidity >=0.4.13;\n\ncontract EcommerceStore {\n    enum ProductStatus { Open, Sold, Unsold }\n    enum ProductCondition { New, Used }\n\n    uint public productIndex;\n    mapping (address => mapping(uint => Product)) stores;\n    //\n    mapping (uint => address payable) productIdInStore;\n    //productId\n    mapping (uint => address) productEscrow;\n\n\n    //\n    Tracing tracing = (new Tracing)();\n    address tracingContract = address(tracing);\n    \n\n    struct Product {\n        uint id;\n        string name;\n        string category;\n        string[] imageLinkArray;\n        string descLink;\n        uint auctionStartTime;\n        uint auctionEndTime;\n        uint startPrice;\n        address payable highestBidder;\n        uint highestBid;\n        uint secondHighestBid;\n        uint totalBids;\n        ProductStatus status;\n        ProductCondition condition;\n        mapping (address => mapping (bytes32 => Bid)) bids;\n        uint auctionRevealTime;\n    }\n\n    struct Bid{\n        address bidder;\n        uint productId;\n        uint value;\n        bool revealed;\n    }\n\n\n    //\n    event NewProduct(uint _productId, address _seller, string _name, string _category, string[] _imageLinkArray, string _descLink,\n  uint _auctionStartTime, uint _auctionEndTime, uint _startPrice, uint _productCondition, uint _auctionRevealTime);\n\n    event ChangeProduct(uint _productId, address _seller, uint _auctionStartTime, uint _auctionEndTime, uint _startPrice, uint _productCondition, uint _auctionRevealTime);\n\n    event NewBid(uint _productId, address _bidder);\n\n    event CreateEscrow(address _buyer, uint _amount);\n\n    //\n    event DisburseAmount(address _buyer, uint _amount, address _beneficiary);\n    //\n    event ArbiterEarn(uint _amount, address _beneficiary);\n\n    constructor () public {\n        productIndex = 0;\n    }\n\n    //,\n    function changeInfoToSellAgain(uint _productId, uint _auctionStartTime, uint _auctionEndTime, uint _startPrice, uint _auctionRevealTime) public payable {\n        // require (_auctionStartTime < _auctionEndTime, \"[ERROR] Acution start time should be earlier than end time.\");\n\n        //\n        // escrowInfo(uint _productId)\n        // return (seller, buyer, arbiter, fundsDisbursed, releaseCount, refundCount);\n        // returns (address payable, address payable, address, bool, uint, uint)\n        address payable seller;\n        address payable buyer;\n        address arbiter;\n        bool fundsDisbursed;\n        uint releaseCount;\n        uint refundCount;\n\n        //\n        address escrowAddress = escrowAddressForProduct(_productId);\n        // require(escrowAddress > address(0), \"[ERROR] Contract escrow should be exist before you can resell.\");\n\n        //\n        if(escrowAddress > address(0)){\n            //  \n            //\n            (seller, buyer, arbiter, fundsDisbursed, releaseCount, refundCount) = escrowInfo(_productId);\n\n            //\n            // require(fundsDisbursed == true, \"[ERROR] Contract Escrow has not prepared.\");\n\n            //\"\"\n            //\"2\"\n            if(releaseCount >= 2 && refundCount <=1){\n                //\n                // require (msg.sender == buyer, \"[ERROR] Only buyer can sell this product again.\");\n            }\n            else if(releaseCount <= 1 && refundCount >=2){\n                //\n                // require (msg.sender == seller, \"[ERROR] Only buyer can sell this product again.\");\n            }\n            else{\n                // //\n                // require (false, \"[ERROR] releaseCount and refundCount are error.\");\n            } \n              \n        }\n        //,\n        else if(escrowAddress == address(0)){\n            require (msg.sender == productIdInStore[_productId], \"[ERROR] Only owner can sell this product again.\");\n        }\n\n\n        //\n        //\n        // string memory name = stores[productIdInStore[_productId]][_productId].name;\n        // string memory category = stores[productIdInStore[_productId]][_productId].category;\n        // string[] memory imageLinkArray = stores[productIdInStore[_productId]][_productId].imageLinkArray;\n        // string memory descLink = stores[productIdInStore[_productId]][_productId].descLink;\n        \n        // stores[msg.sender][_productId] = Product(_productId, name, category, imageLinkArray, descLink, _auctionStartTime, _auctionEndTime,\n        //                                 _startPrice, address(0), 0, 0, 0, ProductStatus.Open, ProductCondition.Used, _auctionRevealTime);\n        \n        \n        stores[msg.sender][_productId] = stores[productIdInStore[_productId]][_productId];\n        if( msg.sender != productIdInStore[_productId]){\n            //product, gas\n            delete stores[productIdInStore[_productId]][_productId];\n        }\n        \n        //\n        // uint auctionStartTime;\n        // uint auctionEndTime;\n        // uint startPrice;\n        // uint auctionRevealTime;\n        // ProductStatus status;\n        // ProductCondition condition;\n        stores[msg.sender][_productId].auctionStartTime = _auctionStartTime;\n        stores[msg.sender][_productId].auctionEndTime = _auctionEndTime;\n        stores[msg.sender][_productId].startPrice = _startPrice;\n        stores[msg.sender][_productId].auctionRevealTime = _auctionRevealTime;\n        stores[msg.sender][_productId].status = ProductStatus.Open;\n        stores[msg.sender][_productId].condition = ProductCondition.Used;\n        stores[msg.sender][_productId].highestBidder = address(0);\n        stores[msg.sender][_productId].highestBid = 0;\n        stores[msg.sender][_productId].secondHighestBid = 0;\n        stores[msg.sender][_productId].totalBids = 0;\n\n        productIdInStore[_productId] = msg.sender;\n\n        //\n        Tracing(tracingContract).addOneLineToInfoLine(1, _productId, msg.sender, \"\");\n\n        //mongodb\n        emit ChangeProduct(_productId, msg.sender, _auctionStartTime, _auctionEndTime, _startPrice, 1, _auctionRevealTime);       \n    }\n\n\n    //hash\n    function addProductToStore(string memory _name, string memory _category, string[] memory _imageLinkArray, string memory _descLink, uint _auctionStartTime,\n                                uint _auctionEndTime, uint _startPrice, uint _productCondition, uint _auctionRevealTime) public payable {\n        // require (_auctionStartTime < _auctionEndTime, \"[ERROR] Acution start time should be earlier than end time.\");\n\n        productIndex += 1;\n        Product memory product = Product(productIndex, _name, _category, _imageLinkArray, _descLink, _auctionStartTime, _auctionEndTime,\n                                        _startPrice, address(0), 0, 0, 0, ProductStatus.Open, ProductCondition(_productCondition), _auctionRevealTime);\n\n        // product  stores\n        stores[msg.sender][productIndex] = product;\n        productIdInStore[productIndex] = msg.sender;\n\n        \n\n        //\n        Tracing(tracingContract).addOneLineToInfoLine(1, productIndex, msg.sender, \"\");\n\n        //mongodb\n        emit NewProduct(productIndex, msg.sender, _name, _category, _imageLinkArray, _descLink, _auctionStartTime, _auctionEndTime, _startPrice, _productCondition, _auctionRevealTime);\n    }\n\n    //\n    // revealTime \n    function getProduct(uint _productId) view public returns (uint, string memory, string memory, string[] memory, string memory, uint[3] memory, uint, ProductStatus, ProductCondition) {\n        Product memory product = stores[productIdInStore[_productId]][_productId];\n\n        //163uint(auctionStartTime, auctionEndTime, auctionRevealTime)\n        //Stack too deep, try removing local variables\n        uint[3] memory timeArray = [product.auctionStartTime, product.auctionEndTime, product.auctionRevealTime];\n        //\n        return (product.id, product.name, product.category, product.imageLinkArray, product.descLink, timeArray, product.startPrice, product.status, product.condition);\n    }\n\n\n    function bid(uint _productId, bytes32 _bid) public payable returns (bool) {\n        // _bid  keccak256 \n        Product storage product = stores[productIdInStore[_productId]][_productId];\n        // now unix197011\n        // require(now >= product.auctionStartTime, \"[ERROR] Current time should be later than auction start time.\");\n        // require(now <= product.auctionEndTime, \"[ERROR] Current time should be earlier than auction end time.\");\n        // require(msg.value > product.startPrice, \"[ERROR] Value should be larger than start price.\");\n        // require(product.bids[msg.sender][_bid].bidder == address(0), \"[ERROR] Bidder should be null.\");\n        product.bids[msg.sender][_bid] = Bid(msg.sender, _productId, msg.value, false);\n        product.totalBids += 1;\n\n        emit NewBid(product.id, msg.sender);\n        return true;\n    }\n\n    function revealBid(uint _productId, string memory _amountStr, uint _amountInt, string memory _secret) public returns (uint){\n        //storage\n        Product storage product = stores[productIdInStore[_productId]][_productId];\n        // require(now >= product.auctionEndTime);\n        // bytes32 sealedBid = sha3(\"EVWithdraw(_amount, _secret)\");\n        //js\n        // bytes32 sealedBid = keccak256(\"EVWithdraw(_amount, _secret)\");\n        bytes32 sealedBid = keccak256(abi.encodePacked(_amountStr, _secret));\n        Bid memory bidInfo = product.bids[msg.sender][sealedBid];\n        require(bidInfo.bidder > address(0), \"[ERROR] Bidder should exist.\");\n        require(bidInfo.revealed == false, \"[ERROR] BId should not be revealed.\");\n        require(now <= product.auctionEndTime + (60* product.auctionRevealTime), \"[ERROR] Current time should be earlier than reveal end time.\");\n\n        uint refund;\n        uint amount = _amountInt;\n        if(bidInfo.value < amount) {\n            //\n            refund = bidInfo.value;\n        } else {\n            //\n            if(address(product.highestBidder) == address(0)) {\n                product.highestBidder = msg.sender;\n                product.highestBid = amount;\n                product.secondHighestBid = product.startPrice;\n                //\n                refund = bidInfo.value - amount;\n            } else {\n                //\n                //\n                if(amount > product.highestBid) {\n                    product.secondHighestBid = product.highestBid;\n                    product.highestBidder.transfer(product.highestBid);\n                    product.highestBid = amount;\n                    product.highestBidder = msg.sender;\n                    //\n                    refund = bidInfo.value - amount;\n                //\n                } else if(amount > product.secondHighestBid) {\n                    product.secondHighestBid = amount;\n                    refund = bidInfo.value;\n                //\n                } else {\n                    refund = bidInfo.value;\n                }\n            }\n        }\n        product.bids[msg.sender][sealedBid].revealed = true;\n        if(refund > 0) {\n            //\n            msg.sender.transfer(refund);\n        }\n        return refund;\n    }\n    \n\n\n    function highestBidderInfo(uint _productId) public view returns (address, uint, uint) {\n        Product storage product = stores[productIdInStore[_productId]][_productId];\n        return (product.highestBidder, product.highestBid, product.secondHighestBid);\n    }\n\n    function totalBids(uint _productId) public view returns (uint) {\n        Product storage product = stores[productIdInStore[_productId]][_productId];\n        return product.totalBids;\n    }\n\n    //return num of product\n    function getNumOfProduct() public view returns (uint) {\n        return productIndex;\n    }\n\n    //\n    //1  &&  10  \n    function finalizeAuction(uint _productId) public payable {\n        //msg.value\n\n        //memory\n        // Product memory product = stores[productIdInStore[_productId]][_productId];\n        //storage\n        Product storage product = stores[productIdInStore[_productId]][_productId];\n        // require((now > product.auctionEndTime), \"[ERROR]Current time should be later than auction end time.\");\n        require(product.status == ProductStatus.Open, \"[ERROR]Product status should be open.\");\n        require(msg.sender != productIdInStore[_productId], \"[ERROR]Caller should not be seller.\");\n        require(msg.sender != product.highestBidder, \"[ERROR]Caller should not be buyer.\");\n\n        //if(product.totalBids == 0)bidreveal\n        //bidrevealjsrenderProductDetailsif(parseInt(p[8]) == 1)\n        // if(product.totalBids == 0){\n        if(product.highestBidder == address(0)){\n            product.status = ProductStatus.Unsold;\n            //\n            msg.sender.transfer(msg.value);\n        } \n        else {\n            //newEcommerceStoreEcommerceStore\n            //\n            //\n            // product.secondHighestBid+msg.value \n            Escrow escrow = (new Escrow).value(product.secondHighestBid+msg.value)(_productId, productIdInStore[_productId], product.highestBidder, msg.sender, msg.value);\n            //Escrow\n            emit CreateEscrow(product.highestBidder, product.secondHighestBid+msg.value);\n            //\n            productEscrow[_productId] = address(escrow);\n            product.status = ProductStatus.Sold;\n\n            //\n            uint refund = product.highestBid - product.secondHighestBid;\n            product.highestBidder.transfer(refund);\n            \n        }\n        \n\n        //\n        Tracing(tracingContract).addOneLineToInfoLine(1, _productId, msg.sender, \"\");\n\n        //\n        address highestBidder;\n        uint highestBid;\n        uint secondHighestBid;\n        string memory highestBidderTracingInfo;\n        (highestBidder, highestBid, secondHighestBid) = this.highestBidderInfo(_productId);\n        //\n        if(highestBidder > address(0)){\n            //\n            // highestBidderTracingInfo = strConcat(\"( \", strConcat(addrToStr(highestBidder), strConcat(\" )( \", strConcat(intToStr(secondHighestBid), \" wei )\"))));\n            highestBidderTracingInfo = \"\";\n        }//\n        else{\n            highestBidderTracingInfo = \"\";\n        }\n        \n        Tracing(tracingContract).addOneLineToInfoLine(1, _productId, msg.sender, highestBidderTracingInfo);\n\n        //storage\n        // //\n        // stores[productIdInStore[_productId]][_productId] = product;\n\n    }\n\n//     function strConcat(string memory _a, string memory _b) private pure returns (string memory){\n//         bytes memory _ba = bytes(_a);\n//         bytes memory _bb = bytes(_b);\n//         string memory ret = new string(_ba.length + _bb.length);\n//         bytes memory bret = bytes(ret);\n//         uint k = 0;\n//         for (uint i = 0; i < _ba.length; i++) bret[k++] = _ba[i];\n//         for (uint i = 0; i < _bb.length; i++) bret[k++] = _bb[i];\n//         return string(ret);\n//    }  \n\n    // //\n    // function getTracingInfo(uint _productId) public view returns(address[] memory, string[] memory, string[] memory){\n    //     return Tracing(tracingContract).getInfoLine(1, _productId);\n    // }\n\n    //\n    function getTracingInfo(uint _productId) public view returns(address[] memory, string[] memory, uint[] memory){\n        return Tracing(tracingContract).getInfoLine(1, _productId);\n    }\n\n    function escrowAddressForProduct(uint _productId) public view returns(address){\n        //web3EscrowEcommerceStore\n        return productEscrow[_productId];\n    }\n\n    //  \n    function escrowInfo(uint _productId) public view returns (address payable, address payable, address, bool, uint, uint) {\n        //addressEscrow\n        return Escrow(productEscrow[_productId]).escrowInfo();\n    }\n\n    // //\n    // function escrowAmountInfo(uint _productId) public view returns (uint, uint) {\n    //     //addressEscrow\n    //     return Escrow(productEscrow[_productId]).escrowAmountInfo();\n    // }\n    \n\n    //\n    function sellerInfo(uint _productId) public view returns (address) {\n        return productIdInStore[_productId];\n    }\n\n    //EcommerceStore  release  refund \n    function releaseAmountToSeller(uint _productId) public {\n        //msg.sender\n        //msg.sender\n        bool hasRelease;\n        address payable buyer;\n        address payable seller;\n        uint sellEarn;\n        address payable arbiter;\n        uint arbitEarn;\n        (hasRelease, buyer, seller, sellEarn, arbiter, arbitEarn) = Escrow(productEscrow[_productId]).releaseAmountToSeller(msg.sender);\n        // (true, buyer, seller, amount, arbiter, arbiterEarnAmount);\n        if(hasRelease){\n            emit DisburseAmount(buyer, sellEarn, seller);\n            emit ArbiterEarn(arbitEarn, arbiter);\n        }\n\n        //\n        Tracing(tracingContract).addOneLineToInfoLine(1, _productId, msg.sender, \"\");\n        if(hasRelease){\n            //\n            Tracing(tracingContract).addOneLineToInfoLine(1, _productId, msg.sender, \"\");\n        }\n    }\n    \n    function refundAmountToBuyer(uint _productId) public {\n        //msg.sender\n        bool hasRefund = Escrow(productEscrow[_productId]).refundAmountToBuyer(msg.sender);\n        //\n        Tracing(tracingContract).addOneLineToInfoLine(1, _productId, msg.sender, \"\");\n        if(hasRefund){\n            //\n            stores[productIdInStore[_productId]][_productId].status = ProductStatus.Unsold;\n            //\n            Tracing(tracingContract).addOneLineToInfoLine(1, _productId, msg.sender, \"\");\n        }\n    }\n\n}\n",
  "sourcePath": "/home/kzj/project/finalize/final/code/truffle_code/contracts/EcommerceStore.sol",
  "compiler": {
    "name": "solc",
    "version": "0.5.16+commit.9c3226ce.Emscripten.clang"
  },
  "schemaVersion": "3.4.4",
  "updatedAt": "2022-05-27T17:48:57.417Z",
  "networkType": "ethereum",
  "devdoc": {
    "methods": {}
  },
  "userdoc": {
    "methods": {}
  }
}