{
  "contractName": "Escrow",
  "abi": [
    {
      "inputs": [
        {
          "internalType": "uint256",
          "name": "_productId",
          "type": "uint256"
        },
        {
          "internalType": "address payable",
          "name": "_seller",
          "type": "address"
        },
        {
          "internalType": "address payable",
          "name": "_buyer",
          "type": "address"
        },
        {
          "internalType": "address payable",
          "name": "_arbiter",
          "type": "address"
        },
        {
          "internalType": "uint256",
          "name": "_arbiterAmount",
          "type": "uint256"
        }
      ],
      "payable": true,
      "stateMutability": "payable",
      "type": "constructor"
    },
    {
      "constant": true,
      "inputs": [],
      "name": "amount",
      "outputs": [
        {
          "internalType": "uint256",
          "name": "",
          "type": "uint256"
        }
      ],
      "payable": false,
      "stateMutability": "view",
      "type": "function"
    },
    {
      "constant": true,
      "inputs": [],
      "name": "arbiter",
      "outputs": [
        {
          "internalType": "address payable",
          "name": "",
          "type": "address"
        }
      ],
      "payable": false,
      "stateMutability": "view",
      "type": "function"
    },
    {
      "constant": true,
      "inputs": [],
      "name": "arbiterAmount",
      "outputs": [
        {
          "internalType": "uint256",
          "name": "",
          "type": "uint256"
        }
      ],
      "payable": false,
      "stateMutability": "view",
      "type": "function"
    },
    {
      "constant": true,
      "inputs": [],
      "name": "buyer",
      "outputs": [
        {
          "internalType": "address payable",
          "name": "",
          "type": "address"
        }
      ],
      "payable": false,
      "stateMutability": "view",
      "type": "function"
    },
    {
      "constant": true,
      "inputs": [],
      "name": "productId",
      "outputs": [
        {
          "internalType": "uint256",
          "name": "",
          "type": "uint256"
        }
      ],
      "payable": false,
      "stateMutability": "view",
      "type": "function"
    },
    {
      "constant": true,
      "inputs": [],
      "name": "refundCount",
      "outputs": [
        {
          "internalType": "uint256",
          "name": "",
          "type": "uint256"
        }
      ],
      "payable": false,
      "stateMutability": "view",
      "type": "function"
    },
    {
      "constant": true,
      "inputs": [],
      "name": "releaseCount",
      "outputs": [
        {
          "internalType": "uint256",
          "name": "",
          "type": "uint256"
        }
      ],
      "payable": false,
      "stateMutability": "view",
      "type": "function"
    },
    {
      "constant": true,
      "inputs": [],
      "name": "seller",
      "outputs": [
        {
          "internalType": "address payable",
          "name": "",
          "type": "address"
        }
      ],
      "payable": false,
      "stateMutability": "view",
      "type": "function"
    },
    {
      "constant": true,
      "inputs": [],
      "name": "escrowInfo",
      "outputs": [
        {
          "internalType": "address payable",
          "name": "",
          "type": "address"
        },
        {
          "internalType": "address payable",
          "name": "",
          "type": "address"
        },
        {
          "internalType": "address payable",
          "name": "",
          "type": "address"
        },
        {
          "internalType": "bool",
          "name": "",
          "type": "bool"
        },
        {
          "internalType": "uint256",
          "name": "",
          "type": "uint256"
        },
        {
          "internalType": "uint256",
          "name": "",
          "type": "uint256"
        }
      ],
      "payable": false,
      "stateMutability": "view",
      "type": "function"
    },
    {
      "constant": false,
      "inputs": [
        {
          "internalType": "address",
          "name": "_caller",
          "type": "address"
        }
      ],
      "name": "releaseAmountToSeller",
      "outputs": [
        {
          "internalType": "bool",
          "name": "",
          "type": "bool"
        },
        {
          "internalType": "address payable",
          "name": "",
          "type": "address"
        },
        {
          "internalType": "address payable",
          "name": "",
          "type": "address"
        },
        {
          "internalType": "uint256",
          "name": "",
          "type": "uint256"
        },
        {
          "internalType": "address payable",
          "name": "",
          "type": "address"
        },
        {
          "internalType": "uint256",
          "name": "",
          "type": "uint256"
        }
      ],
      "payable": false,
      "stateMutability": "nonpayable",
      "type": "function"
    },
    {
      "constant": false,
      "inputs": [
        {
          "internalType": "address",
          "name": "_caller",
          "type": "address"
        }
      ],
      "name": "refundAmountToBuyer",
      "outputs": [
        {
          "internalType": "bool",
          "name": "",
          "type": "bool"
        }
      ],
      "payable": false,
      "stateMutability": "nonpayable",
      "type": "function"
    }
  ],
  "bytecode": "0x6080604052604051610f3f380380610f3f833981810160405260a081101561002657600080fd5b8101908080519060200190929190805190602001909291908051906020019092919080519060200190929190805190602001909291905050508460008190555083600160006101000a81548173ffffffffffffffffffffffffffffffffffffffff021916908373ffffffffffffffffffffffffffffffffffffffff16021790555082600260006101000a81548173ffffffffffffffffffffffffffffffffffffffff021916908373ffffffffffffffffffffffffffffffffffffffff16021790555081600360006101000a81548173ffffffffffffffffffffffffffffffffffffffff021916908373ffffffffffffffffffffffffffffffffffffffff16021790555080340360048190555080600581905550600060078190555060006009819055506000600a60006101000a81548160ff0219169083151502179055505050505050610dc7806101786000396000f3fe608060405234801561001057600080fd5b50600436106100a95760003560e01c8063a97d1b1011610071578063a97d1b1014610281578063aa8c217c146102dd578063b8d08db2146102fb578063c5ce391114610319578063f3d2590414610337578063fe25e00a14610400576100a9565b806308551a53146100ae5780630bda4dbf146100f857806358aad10b146101165780637150d8ae146102195780639d6d6d1114610263575b600080fd5b6100b661044a565b604051808273ffffffffffffffffffffffffffffffffffffffff1673ffffffffffffffffffffffffffffffffffffffff16815260200191505060405180910390f35b610100610470565b6040518082815260200191505060405180910390f35b6101586004803603602081101561012c57600080fd5b81019080803573ffffffffffffffffffffffffffffffffffffffff169060200190929190505050610476565b60405180871515151581526020018673ffffffffffffffffffffffffffffffffffffffff1673ffffffffffffffffffffffffffffffffffffffff1681526020018573ffffffffffffffffffffffffffffffffffffffff1673ffffffffffffffffffffffffffffffffffffffff1681526020018481526020018373ffffffffffffffffffffffffffffffffffffffff1673ffffffffffffffffffffffffffffffffffffffff168152602001828152602001965050505050505060405180910390f35b6102216108b7565b604051808273ffffffffffffffffffffffffffffffffffffffff1673ffffffffffffffffffffffffffffffffffffffff16815260200191505060405180910390f35b61026b6108dd565b6040518082815260200191505060405180910390f35b6102c36004803603602081101561029757600080fd5b81019080803573ffffffffffffffffffffffffffffffffffffffff1690602001909291905050506108e3565b604051808215151515815260200191505060405180910390f35b6102e5610c66565b6040518082815260200191505060405180910390f35b610303610c6c565b6040518082815260200191505060405180910390f35b610321610c72565b6040518082815260200191505060405180910390f35b61033f610c78565b604051808773ffffffffffffffffffffffffffffffffffffffff1673ffffffffffffffffffffffffffffffffffffffff1681526020018673ffffffffffffffffffffffffffffffffffffffff1673ffffffffffffffffffffffffffffffffffffffff1681526020018573ffffffffffffffffffffffffffffffffffffffff1673ffffffffffffffffffffffffffffffffffffffff16815260200184151515158152602001838152602001828152602001965050505050505060405180910390f35b610408610d14565b604051808273ffffffffffffffffffffffffffffffffffffffff1673ffffffffffffffffffffffffffffffffffffffff16815260200191505060405180910390f35b600160009054906101000a900473ffffffffffffffffffffffffffffffffffffffff1681565b60095481565b600080600080600080600a60009054906101000a900460ff16156104e5576040517f08c379a0000000000000000000000000000000000000000000000000000000008152600401808060200182810382526025815260200180610d6e6025913960400191505060405180910390fd5b600160009054906101000a900473ffffffffffffffffffffffffffffffffffffffff1673ffffffffffffffffffffffffffffffffffffffff168773ffffffffffffffffffffffffffffffffffffffff16148061058e5750600260009054906101000a900473ffffffffffffffffffffffffffffffffffffffff1673ffffffffffffffffffffffffffffffffffffffff168773ffffffffffffffffffffffffffffffffffffffff16145b806105e65750600360009054906101000a900473ffffffffffffffffffffffffffffffffffffffff1673ffffffffffffffffffffffffffffffffffffffff168773ffffffffffffffffffffffffffffffffffffffff16145b61063b576040517f08c379a0000000000000000000000000000000000000000000000000000000008152600401808060200182810382526033815260200180610d3b6033913960400191505060405180910390fd5b600660008873ffffffffffffffffffffffffffffffffffffffff1673ffffffffffffffffffffffffffffffffffffffff16815260200190815260200160002060009054906101000a900460ff166106f6576001600660008973ffffffffffffffffffffffffffffffffffffffff1673ffffffffffffffffffffffffffffffffffffffff16815260200190815260200160002060006101000a81548160ff02191690831515021790555060016007600082825401925050819055505b6002600754106108ad57600060646004548161070e57fe5b0490506000600a6005548161071f57fe5b04905060008183106107315781610733565b825b9050600160009054906101000a900473ffffffffffffffffffffffffffffffffffffffff1673ffffffffffffffffffffffffffffffffffffffff166108fc82600454039081150290604051600060405180830381858888f193505050501580156107a1573d6000803e3d6000fd5b50600360009054906101000a900473ffffffffffffffffffffffffffffffffffffffff1673ffffffffffffffffffffffffffffffffffffffff166108fc82600554019081150290604051600060405180830381858888f1935050505015801561080e573d6000803e3d6000fd5b506001600a60006101000a81548160ff0219169083151502179055506001600260009054906101000a900473ffffffffffffffffffffffffffffffffffffffff16600160009054906101000a900473ffffffffffffffffffffffffffffffffffffffff16600454600360009054906101000a900473ffffffffffffffffffffffffffffffffffffffff16859850985098509850985098505050506108ae565b5b91939550919395565b600260009054906101000a900473ffffffffffffffffffffffffffffffffffffffff1681565b60055481565b6000600a60009054906101000a900460ff161561094b576040517f08c379a0000000000000000000000000000000000000000000000000000000008152600401808060200182810382526025815260200180610d6e6025913960400191505060405180910390fd5b600160009054906101000a900473ffffffffffffffffffffffffffffffffffffffff1673ffffffffffffffffffffffffffffffffffffffff168273ffffffffffffffffffffffffffffffffffffffff1614806109f45750600260009054906101000a900473ffffffffffffffffffffffffffffffffffffffff1673ffffffffffffffffffffffffffffffffffffffff168273ffffffffffffffffffffffffffffffffffffffff16145b80610a4c5750600360009054906101000a900473ffffffffffffffffffffffffffffffffffffffff1673ffffffffffffffffffffffffffffffffffffffff168273ffffffffffffffffffffffffffffffffffffffff16145b610aa1576040517f08c379a0000000000000000000000000000000000000000000000000000000008152600401808060200182810382526033815260200180610d3b6033913960400191505060405180910390fd5b600860008373ffffffffffffffffffffffffffffffffffffffff1673ffffffffffffffffffffffffffffffffffffffff16815260200190815260200160002060009054906101000a900460ff16610b5c576001600860008473ffffffffffffffffffffffffffffffffffffffff1673ffffffffffffffffffffffffffffffffffffffff16815260200190815260200160002060006101000a81548160ff02191690831515021790555060016009600082825401925050819055505b600260095410610c6057600260009054906101000a900473ffffffffffffffffffffffffffffffffffffffff1673ffffffffffffffffffffffffffffffffffffffff166108fc6004549081150290604051600060405180830381858888f19350505050158015610bd0573d6000803e3d6000fd5b50600360009054906101000a900473ffffffffffffffffffffffffffffffffffffffff1673ffffffffffffffffffffffffffffffffffffffff166108fc6005549081150290604051600060405180830381858888f19350505050158015610c3b573d6000803e3d6000fd5b506001600a60006101000a81548160ff02191690831515021790555060019050610c61565b5b919050565b60045481565b60075481565b60005481565b600080600080600080600160009054906101000a900473ffffffffffffffffffffffffffffffffffffffff16600260009054906101000a900473ffffffffffffffffffffffffffffffffffffffff16600360009054906101000a900473ffffffffffffffffffffffffffffffffffffffff16600a60009054906101000a900460ff16600754600954955095509550955095509550909192939495565b600360009054906101000a900473ffffffffffffffffffffffffffffffffffffffff168156fe5b4552524f525d43616c6c65722073686f756c642062652073656c6c6572206f72206275796572206f7220617262697465722e5b4552524f525d46756e64732073686f756c64206e6f74206265206469736275727365642ea265627a7a72315820e9dfcd4a87e897494d2767dd04fc460514b105523a227ddd311c2ce93e605d9264736f6c63430005100032",
  "source": "// SPDX-License-Identifier: SimPL-2.0\n\npragma solidity >=0.4.21 <8.10.0;\n\n// pragma solidity >=0.4.13;\n\ncontract Escrow{\n    //基本信息\n    uint public productId;\n    address payable public seller;\n    address payable public buyer;\n    address payable public arbiter;\n    //交易押金\n    uint public amount;\n    //仲裁人押金\n    uint public arbiterAmount;\n\n    //托管的合约状态\n    mapping(address => bool) releaseAmount;\n    //mapping不能遍历，所以需要计数器count\n    uint public releaseCount;\n    mapping(address => bool) refundAmount;\n    uint public refundCount;\n    //资金是否已转走\n    bool fundsDisbursed;\n\n\n    //由主合约生成的子合约，emit事件，外部接收不到，当作为函数的返回值返回\n\n    // //事件\n    // //新建资金托管合约\n    // event CreateEscrow(uint _productId, address _seller, address _buyer, address _arbiter, uint _amount, uint _arbiterAmount);\n    // //3人投票, _operation: 0为释放给卖家, 1为退还给买家\n    // event UnlockAmount(uint _productId, uint _operation, address _operator);\n    // //合约中的买家卖家资金转移\n    // //toSellerOrBuyer 为0 表示转给卖家, 为1 表示转给买家\n    // event DisburseAmount(uint _productId, uint toSellerOrBuyer, address _buyer, uint _amount, address _beneficiary);\n    // //仲裁收入\n    // event ArbiterEarn(uint _productId, uint _amount, address _beneficiary);\n\n\n    //把钱存进来\n    constructor(uint _productId, address payable _seller, address payable _buyer, address payable _arbiter, uint _arbiterAmount) public payable {\n        productId = _productId;\n        seller = _seller;\n        buyer = _buyer;\n        arbiter = _arbiter;\n        //买卖交易押金\n        amount = msg.value - _arbiterAmount;\n        //仲裁人押金\n        arbiterAmount = _arbiterAmount;\n        //初始为0\n        releaseCount = 0;\n        refundCount = 0;\n        fundsDisbursed = false;\n        // emit CreateEscrow(_productId, _seller, _buyer, _arbiter, amount, arbiterAmount);\n    }\n\n    function escrowInfo() public view returns(address payable, address payable, address payable, bool, uint ,uint) {\n        return (seller, buyer, arbiter, fundsDisbursed, releaseCount, refundCount);\n    }\n\n    // //查询买卖押金和仲裁人押金\n    // function escrowAmountInfo() public view returns(uint ,uint) {\n    //     return (amount, arbiterAmount);\n    // }\n\n    //释放资金给卖家\n    function releaseAmountToSeller(address _caller) public returns(bool, address payable, address payable, uint, address payable, uint){\n        //注意msg.sender是合约EcommerceStore，不是真正的用户，真正的用户是_caller\n        require(!fundsDisbursed, \"[ERROR]Funds should not be disbursed.\");\n        require((_caller == seller || _caller == buyer || _caller == arbiter), \"[ERROR]Caller should be seller or buyer or arbiter.\");\n        //不能重复投票\n        if(!releaseAmount[_caller]){\n            //这个人想要释放\n            releaseAmount[_caller] = true;\n            releaseCount += 1;\n            // emit UnlockAmount(productId, 0, _caller);\n        }\n        //2/3的人同意\n        if(releaseCount >= 2){\n            //仲裁人获取收益\n            //获得成功交易额的百分之1  &&  自己押金的百分之10  中的较小者\n            //arbiterAmount是押金数量\n            //arbiterEarnAmount是赚钱数量\n            uint amount1 = amount/100;\n            uint amount2 = arbiterAmount/10;\n            uint arbiterEarnAmount = amount1 < amount2 ? amount1 : amount2;\n\n            //给卖家转钱(付仲裁金)\n            seller.transfer(amount - arbiterEarnAmount);\n            // emit DisburseAmount(productId, 0, buyer, amount, seller);\n\n            //给仲裁人转钱(赚仲裁金)\n            arbiter.transfer(arbiterAmount + arbiterEarnAmount);\n            fundsDisbursed = true;\n            // emit ArbiterEarn(productId, arbiterEarnAmount, arbiter);\n\n            // true, 卖家, 买卖金额, 仲裁人, 仲裁所得\n            return (true, buyer, seller, amount, arbiter, arbiterEarnAmount);\n        }\n    }\n\n    function refundAmountToBuyer(address _caller) public returns(bool){\n        require(!fundsDisbursed, \"[ERROR]Funds should not be disbursed.\");\n        require((_caller == seller || _caller == buyer || _caller == arbiter), \"[ERROR]Caller should be seller or buyer or arbiter.\");\n        if(!refundAmount[_caller]){\n            refundAmount[_caller] = true;\n            refundCount += 1;\n            // emit UnlockAmount(productId, 1, _caller);\n        }\n        if(refundCount >= 2){\n            //给买家转钱(不付仲裁金)\n            buyer.transfer(amount);\n            // emit DisburseAmount(productId, 1, buyer, amount, buyer);\n\n            //给仲裁人转钱(不赚仲裁金)\n            arbiter.transfer(arbiterAmount);\n            fundsDisbursed = true;\n\n            return true;\n        }\n    }\n\n}",
  "sourcePath": "/home/kzj/project/finalize/final/code/truffle_code/contracts/Escrow.sol",
  "compiler": {
    "name": "solc",
    "version": "0.5.16+commit.9c3226ce.Emscripten.clang"
  },
  "schemaVersion": "3.4.4",
  "updatedAt": "2022-05-03T12:19:43.721Z",
  "devdoc": {
    "methods": {}
  },
  "userdoc": {
    "methods": {}
  }
}