{
  "contractName": "Shopping",
  "abi": [
    {
      "inputs": [],
      "payable": false,
      "stateMutability": "nonpayable",
      "type": "constructor"
    },
    {
      "anonymous": false,
      "inputs": [
        {
          "indexed": false,
          "internalType": "uint256",
          "name": "_goodsId",
          "type": "uint256"
        },
        {
          "indexed": false,
          "internalType": "uint256",
          "name": "_lastInStockNum",
          "type": "uint256"
        }
      ],
      "name": "BuyGoods",
      "type": "event"
    },
    {
      "anonymous": false,
      "inputs": [
        {
          "indexed": false,
          "internalType": "uint256",
          "name": "_goodsId",
          "type": "uint256"
        },
        {
          "indexed": false,
          "internalType": "string",
          "name": "_name",
          "type": "string"
        },
        {
          "indexed": false,
          "internalType": "string",
          "name": "_category",
          "type": "string"
        },
        {
          "indexed": false,
          "internalType": "string[]",
          "name": "_imageLinkArray",
          "type": "string[]"
        },
        {
          "indexed": false,
          "internalType": "string",
          "name": "_descLink",
          "type": "string"
        },
        {
          "indexed": false,
          "internalType": "uint256",
          "name": "_shippingTime",
          "type": "uint256"
        },
        {
          "indexed": false,
          "internalType": "uint256",
          "name": "_inStockNum",
          "type": "uint256"
        },
        {
          "indexed": false,
          "internalType": "uint256",
          "name": "_price",
          "type": "uint256"
        },
        {
          "indexed": false,
          "internalType": "uint256[]",
          "name": "_originPlace",
          "type": "uint256[]"
        }
      ],
      "name": "NewGoods",
      "type": "event"
    },
    {
      "constant": true,
      "inputs": [],
      "name": "productIndex",
      "outputs": [
        {
          "internalType": "uint256",
          "name": "",
          "type": "uint256"
        }
      ],
      "payable": false,
      "stateMutability": "view",
      "type": "function"
    },
    {
      "constant": false,
      "inputs": [
        {
          "internalType": "string",
          "name": "_name",
          "type": "string"
        },
        {
          "internalType": "string",
          "name": "_category",
          "type": "string"
        },
        {
          "internalType": "string[]",
          "name": "_imageLinkArray",
          "type": "string[]"
        },
        {
          "internalType": "string",
          "name": "_descLink",
          "type": "string"
        },
        {
          "internalType": "uint256",
          "name": "_shippingTime",
          "type": "uint256"
        },
        {
          "internalType": "uint256",
          "name": "_inStockNum",
          "type": "uint256"
        },
        {
          "internalType": "uint256",
          "name": "_price",
          "type": "uint256"
        },
        {
          "internalType": "uint256[]",
          "name": "_originPlace",
          "type": "uint256[]"
        }
      ],
      "name": "addGoodsToStore",
      "outputs": [],
      "payable": true,
      "stateMutability": "payable",
      "type": "function"
    },
    {
      "constant": true,
      "inputs": [
        {
          "internalType": "uint256",
          "name": "_productId",
          "type": "uint256"
        }
      ],
      "name": "getGoods",
      "outputs": [
        {
          "internalType": "uint256",
          "name": "",
          "type": "uint256"
        },
        {
          "internalType": "string",
          "name": "",
          "type": "string"
        },
        {
          "internalType": "string",
          "name": "",
          "type": "string"
        },
        {
          "internalType": "string[]",
          "name": "",
          "type": "string[]"
        },
        {
          "internalType": "string",
          "name": "",
          "type": "string"
        },
        {
          "internalType": "uint256",
          "name": "",
          "type": "uint256"
        },
        {
          "internalType": "uint256",
          "name": "",
          "type": "uint256"
        },
        {
          "internalType": "uint256",
          "name": "",
          "type": "uint256"
        },
        {
          "internalType": "uint256[]",
          "name": "",
          "type": "uint256[]"
        },
        {
          "internalType": "enum Shopping.ProductStatus",
          "name": "",
          "type": "uint8"
        }
      ],
      "payable": false,
      "stateMutability": "view",
      "type": "function"
    },
    {
      "constant": false,
      "inputs": [
        {
          "internalType": "uint256",
          "name": "_productId",
          "type": "uint256"
        },
        {
          "internalType": "uint256",
          "name": "_sum",
          "type": "uint256"
        }
      ],
      "name": "order",
      "outputs": [
        {
          "internalType": "bool",
          "name": "",
          "type": "bool"
        }
      ],
      "payable": true,
      "stateMutability": "payable",
      "type": "function"
    },
    {
      "constant": true,
      "inputs": [
        {
          "internalType": "uint256",
          "name": "_productId",
          "type": "uint256"
        }
      ],
      "name": "orderInfo",
      "outputs": [
        {
          "internalType": "address payable[]",
          "name": "",
          "type": "address[]"
        },
        {
          "internalType": "uint256[]",
          "name": "",
          "type": "uint256[]"
        },
        {
          "internalType": "bool[]",
          "name": "",
          "type": "bool[]"
        }
      ],
      "payable": false,
      "stateMutability": "view",
      "type": "function"
    },
    {
      "constant": false,
      "inputs": [
        {
          "internalType": "uint256",
          "name": "_productId",
          "type": "uint256"
        },
        {
          "internalType": "uint256",
          "name": "_orderIndex",
          "type": "uint256"
        }
      ],
      "name": "sendBySeller",
      "outputs": [
        {
          "internalType": "bool",
          "name": "",
          "type": "bool"
        }
      ],
      "payable": false,
      "stateMutability": "nonpayable",
      "type": "function"
    },
    {
      "constant": true,
      "inputs": [
        {
          "internalType": "uint256",
          "name": "_productId",
          "type": "uint256"
        }
      ],
      "name": "sellerInfo",
      "outputs": [
        {
          "internalType": "address",
          "name": "",
          "type": "address"
        }
      ],
      "payable": false,
      "stateMutability": "view",
      "type": "function"
    },
    {
      "constant": true,
      "inputs": [],
      "name": "getNumOfProduct",
      "outputs": [
        {
          "internalType": "uint256",
          "name": "",
          "type": "uint256"
        }
      ],
      "payable": false,
      "stateMutability": "view",
      "type": "function"
    },
    {
      "constant": true,
      "inputs": [
        {
          "internalType": "uint256",
          "name": "_productId",
          "type": "uint256"
        }
      ],
      "name": "getTracingInfo",
      "outputs": [
        {
          "internalType": "address[]",
          "name": "",
          "type": "address[]"
        },
        {
          "internalType": "string[]",
          "name": "",
          "type": "string[]"
        },
        {
          "internalType": "uint256[]",
          "name": "",
          "type": "uint256[]"
        }
      ],
      "payable": false,
      "stateMutability": "view",
      "type": "function"
    }
  ],
  "bytecode": "0x60806040526040516200001290620000ee565b604051809103906000f0801580156200002f573d6000803e3d6000fd5b50600360006101000a81548173ffffffffffffffffffffffffffffffffffffffff021916908373ffffffffffffffffffffffffffffffffffffffff160217905550600360009054906101000a900473ffffffffffffffffffffffffffffffffffffffff16600460006101000a81548173ffffffffffffffffffffffffffffffffffffffff021916908373ffffffffffffffffffffffffffffffffffffffff160217905550348015620000e057600080fd5b5060008081905550620000fc565b610c1a8062002c1383390190565b612b07806200010c6000396000f3fe6080604052600436106100865760003560e01c8063b259003311610059578063b259003314610162578063b4d80af8146101a8578063c59d5144146101c4578063c897d5a614610203578063d1babf5f1461022e57610086565b80631c00be721461008b57806333863ed9146100b657806348cb67b1146100e65780636ab34a4a14610123575b600080fd5b34801561009757600080fd5b506100a061026b565b6040516100ad919061256a565b60405180910390f35b6100d060048036036100cb9190810190611c92565b610274565b6040516100dd91906123a8565b60405180910390f35b3480156100f257600080fd5b5061010d60048036036101089190810190611c69565b610692565b60405161011a91906122f5565b60405180910390f35b34801561012f57600080fd5b5061014a60048036036101459190810190611c69565b6106cf565b6040516101599392919061235c565b60405180910390f35b34801561016e57600080fd5b5061018960048036036101849190810190611c69565b6108c6565b60405161019f9a99989796959493929190612635565b60405180910390f35b6101c260048036036101bd9190810190611b3f565b610cc2565b005b3480156101d057600080fd5b506101eb60048036036101e69190810190611c69565b610fed565b6040516101fa93929190612310565b60405180910390f35b34801561020f57600080fd5b506102186110b2565b604051610225919061256a565b60405180910390f35b34801561023a57600080fd5b5061025560048036036102509190810190611c92565b6110b8565b60405161026291906123a8565b60405180910390f35b60008054905090565b600080600160006002600087815260200190815260200160002060009054906101000a900473ffffffffffffffffffffffffffffffffffffffff1673ffffffffffffffffffffffffffffffffffffffff1673ffffffffffffffffffffffffffffffffffffffff168152602001908152602001600020600085815260200190815260200160002090508060050154341015610343576040517f08c379a000000000000000000000000000000000000000000000000000000000815260040161033a906124ca565b60405180910390fd5b806007015483111561038a576040517f08c379a0000000000000000000000000000000000000000000000000000000008152600401610381906124ea565b60405180910390fd5b6000816007015410156103d2576040517f08c379a00000000000000000000000000000000000000000000000000000000081526004016103c99061252a565b60405180910390fd5b80600a013390806001815401808255809150509060018203906000526020600020016000909192909190916101000a81548173ffffffffffffffffffffffffffffffffffffffff021916908373ffffffffffffffffffffffffffffffffffffffff1602179055505080600b0183908060018154018082558091505090600182039060005260206000200160009091929091909150555080600c0134908060018154018082558091505090600182039060005260206000200160009091929091909150555080600d016000908060018154018082558091505090600182039060005260206000209060209182820401919006909192909190916101000a81548160ff021916908315150217905550508281600701600082825403925050819055507ff3cd77ed08c44104a863fdf20237b567544e83e73ac095ed77c2e80eed30b21c8482600701546040516105279291906126f4565b60405180910390a1600460009054906101000a900473ffffffffffffffffffffffffffffffffffffffff1673ffffffffffffffffffffffffffffffffffffffff16631301b8c3600286336040518463ffffffff1660e01b815260040161058f939291906123ec565b600060405180830381600087803b1580156105a957600080fd5b505af11580156105bd573d6000803e3d6000fd5b505050506000816007015414156106875760018160090160006101000a81548160ff021916908360018111156105ef57fe5b0217905550600460009054906101000a900473ffffffffffffffffffffffffffffffffffffffff1673ffffffffffffffffffffffffffffffffffffffff16631301b8c3600286336040518463ffffffff1660e01b815260040161065493929190612480565b600060405180830381600087803b15801561066e57600080fd5b505af1158015610682573d6000803e3d6000fd5b505050505b600191505092915050565b60006002600083815260200190815260200160002060009054906101000a900473ffffffffffffffffffffffffffffffffffffffff169050919050565b60608060606000600160006002600088815260200190815260200160002060009054906101000a900473ffffffffffffffffffffffffffffffffffffffff1673ffffffffffffffffffffffffffffffffffffffff1673ffffffffffffffffffffffffffffffffffffffff1681526020019081526020016000206000868152602001908152602001600020905080600a0181600b0182600d01828054806020026020016040519081016040528092919081815260200182805480156107e857602002820191906000526020600020905b8160009054906101000a900473ffffffffffffffffffffffffffffffffffffffff1673ffffffffffffffffffffffffffffffffffffffff168152602001906001019080831161079e575b505050505092508180548060200260200160405190810160405280929190818152602001828054801561083a57602002820191906000526020600020905b815481526020019060010190808311610826575b50505050509150808054806020026020016040519081016040528092919081815260200182805480156108b157602002820191906000526020600020906000905b82829054906101000a900460ff1615158152602001906001019060208260000104928301926001038202915080841161087b5790505b50505050509050935093509350509193909250565b60006060806060806000806000606060008060016000600260008f815260200190815260200160002060009054906101000a900473ffffffffffffffffffffffffffffffffffffffff1673ffffffffffffffffffffffffffffffffffffffff1673ffffffffffffffffffffffffffffffffffffffff16815260200190815260200160002060008d81526020019081526020016000209050806000015481600101826002018360030184600401856005015486600601548760070154886008018960090160009054906101000a900460ff16888054600181600116156101000203166002900480601f016020809104026020016040519081016040528092919081815260200182805460018160011615610100020316600290048015610a2c5780601f10610a0157610100808354040283529160200191610a2c565b820191906000526020600020905b815481529060010190602001808311610a0f57829003601f168201915b50505050509850878054600181600116156101000203166002900480601f016020809104026020016040519081016040528092919081815260200182805460018160011615610100020316600290048015610ac85780601f10610a9d57610100808354040283529160200191610ac8565b820191906000526020600020905b815481529060010190602001808311610aab57829003601f168201915b5050505050975086805480602002602001604051908101604052809291908181526020016000905b82821015610bac578382906000526020600020018054600181600116156101000203166002900480601f016020809104026020016040519081016040528092919081815260200182805460018160011615610100020316600290048015610b985780601f10610b6d57610100808354040283529160200191610b98565b820191906000526020600020905b815481529060010190602001808311610b7b57829003601f168201915b505050505081526020019060010190610af0565b505050509650858054600181600116156101000203166002900480601f016020809104026020016040519081016040528092919081815260200182805460018160011615610100020316600290048015610c475780601f10610c1c57610100808354040283529160200191610c47565b820191906000526020600020905b815481529060010190602001808311610c2a57829003601f168201915b5050505050955081805480602002602001604051908101604052809291908181526020018280548015610c9957602002820191906000526020600020905b815481526020019060010190808311610c85575b505050505091509a509a509a509a509a509a509a509a509a509a50509193959799509193959799565b82600010610d05576040517f08c379a0000000000000000000000000000000000000000000000000000000008152600401610cfc9061250a565b60405180910390fd5b60016000808282540192505081905550606080606080610d23611319565b604051806101c0016040528060005481526020018e81526020018d81526020018c81526020018b81526020018881526020018a815260200189815260200187815260200160006001811115610d7457fe5b815260200186815260200185815260200184815260200183815250905080600160003373ffffffffffffffffffffffffffffffffffffffff1673ffffffffffffffffffffffffffffffffffffffff168152602001908152602001600020600080548152602001908152602001600020600082015181600001556020820151816001019080519060200190610e09929190611393565b506040820151816002019080519060200190610e26929190611393565b506060820151816003019080519060200190610e43929190611413565b506080820151816004019080519060200190610e60929190611393565b5060a0820151816005015560c0820151816006015560e08201518160070155610100820151816008019080519060200190610e9c929190611473565b506101208201518160090160006101000a81548160ff02191690836001811115610ec257fe5b021790555061014082015181600a019080519060200190610ee49291906114c0565b5061016082015181600b019080519060200190610f02929190611473565b5061018082015181600c019080519060200190610f20929190611473565b506101a082015181600d019080519060200190610f3e92919061154a565b5090505033600260008054815260200190815260200160002060006101000a81548173ffffffffffffffffffffffffffffffffffffffff021916908373ffffffffffffffffffffffffffffffffffffffff1602179055507fa9aed92a69ae61fc214ff39419a1d6b60e4a5c346f7c87dcdb8b2a14519150e96000548e8e8e8e8e8e8e8e604051610fd699989796959493929190612585565b60405180910390a150505050505050505050505050565b6060806060600460009054906101000a900473ffffffffffffffffffffffffffffffffffffffff1673ffffffffffffffffffffffffffffffffffffffff1663c1f526ea6002866040518363ffffffff1660e01b81526004016110509291906123c3565b60006040518083038186803b15801561106857600080fd5b505afa15801561107c573d6000803e3d6000fd5b505050506040513d6000823e3d601f19601f820116820180604052506110a59190810190611aa8565b9250925092509193909250565b60005481565b60006002600084815260200190815260200160002060009054906101000a900473ffffffffffffffffffffffffffffffffffffffff1673ffffffffffffffffffffffffffffffffffffffff163373ffffffffffffffffffffffffffffffffffffffff161461115b576040517f08c379a00000000000000000000000000000000000000000000000000000000081526004016111529061254a565b60405180910390fd5b6000600160006002600087815260200190815260200160002060009054906101000a900473ffffffffffffffffffffffffffffffffffffffff1673ffffffffffffffffffffffffffffffffffffffff1673ffffffffffffffffffffffffffffffffffffffff168152602001908152602001600020600085815260200190815260200160002090503373ffffffffffffffffffffffffffffffffffffffff166108fc82600c01858154811061120b57fe5b90600052602060002001549081150290604051600060405180830381858888f19350505050158015611241573d6000803e3d6000fd5b50600181600d01848154811061125357fe5b90600052602060002090602091828204019190066101000a81548160ff021916908315150217905550600460009054906101000a900473ffffffffffffffffffffffffffffffffffffffff1673ffffffffffffffffffffffffffffffffffffffff16631301b8c3600286336040518463ffffffff1660e01b81526004016112dc93929190612436565b600060405180830381600087803b1580156112f657600080fd5b505af115801561130a573d6000803e3d6000fd5b50505050600191505092915050565b604051806101c001604052806000815260200160608152602001606081526020016060815260200160608152602001600081526020016000815260200160008152602001606081526020016000600181111561137157fe5b8152602001606081526020016060815260200160608152602001606081525090565b828054600181600116156101000203166002900490600052602060002090601f016020900481019282601f106113d457805160ff1916838001178555611402565b82800160010185558215611402579182015b828111156114015782518255916020019190600101906113e6565b5b50905061140f91906115f0565b5090565b828054828255906000526020600020908101928215611462579160200282015b82811115611461578251829080519060200190611451929190611393565b5091602001919060010190611433565b5b50905061146f9190611615565b5090565b8280548282559060005260206000209081019282156114af579160200282015b828111156114ae578251825591602001919060010190611493565b5b5090506114bc91906115f0565b5090565b828054828255906000526020600020908101928215611539579160200282015b828111156115385782518260006101000a81548173ffffffffffffffffffffffffffffffffffffffff021916908373ffffffffffffffffffffffffffffffffffffffff160217905550916020019190600101906114e0565b5b5090506115469190611641565b5090565b82805482825590600052602060002090601f016020900481019282156115df5791602002820160005b838211156115b057835183826101000a81548160ff0219169083151502179055509260200192600101602081600001049283019260010302611573565b80156115dd5782816101000a81549060ff02191690556001016020816000010492830192600103026115b0565b505b5090506115ec9190611684565b5090565b61161291905b8082111561160e5760008160009055506001016115f6565b5090565b90565b61163e91905b8082111561163a576000818161163191906116b4565b5060010161161b565b5090565b90565b61168191905b8082111561167d57600081816101000a81549073ffffffffffffffffffffffffffffffffffffffff021916905550600101611647565b5090565b90565b6116b191905b808211156116ad57600081816101000a81549060ff02191690555060010161168a565b5090565b90565b50805460018160011615610100020316600290046000825580601f106116da57506116f9565b601f0160209004906000526020600020908101906116f891906115f0565b5b50565b60008151905061170b81612a96565b92915050565b600082601f83011261172257600080fd5b81516117356117308261274a565b61271d565b9150818183526020840193506020810190508385602084028201111561175a57600080fd5b60005b8381101561178a578161177088826116fc565b84526020840193506020830192505060018101905061175d565b5050505092915050565b600082601f8301126117a557600080fd5b81356117b86117b382612772565b61271d565b9150818183526020840193506020810190508360005b838110156117fe57813586016117e48882611982565b8452602084019350602083019250506001810190506117ce565b5050505092915050565b600082601f83011261181957600080fd5b815161182c61182782612772565b61271d565b9150818183526020840193506020810190508360005b83811015611872578151860161185888826119d6565b845260208401935060208301925050600181019050611842565b5050505092915050565b600082601f83011261188d57600080fd5b81356118a061189b8261279a565b61271d565b915081818352602084019350602081019050838560208402820111156118c557600080fd5b60005b838110156118f557816118db8882611a7e565b8452602084019350602083019250506001810190506118c8565b5050505092915050565b600082601f83011261191057600080fd5b815161192361191e8261279a565b61271d565b9150818183526020840193506020810190508385602084028201111561194857600080fd5b60005b83811015611978578161195e8882611a93565b84526020840193506020830192505060018101905061194b565b5050505092915050565b600082601f83011261199357600080fd5b81356119a66119a1826127c2565b61271d565b915080825260208301602083018583830111156119c257600080fd5b6119cd838284612a36565b50505092915050565b600082601f8301126119e757600080fd5b81516119fa6119f5826127c2565b61271d565b91508082526020830160208301858383011115611a1657600080fd5b611a21838284612a45565b50505092915050565b600082601f830112611a3b57600080fd5b8135611a4e611a49826127ee565b61271d565b91508082526020830160208301858383011115611a6a57600080fd5b611a75838284612a36565b50505092915050565b600081359050611a8d81612aad565b92915050565b600081519050611aa281612aad565b92915050565b600080600060608486031215611abd57600080fd5b600084015167ffffffffffffffff811115611ad757600080fd5b611ae386828701611711565b935050602084015167ffffffffffffffff811115611b0057600080fd5b611b0c86828701611808565b925050604084015167ffffffffffffffff811115611b2957600080fd5b611b35868287016118ff565b9150509250925092565b600080600080600080600080610100898b031215611b5c57600080fd5b600089013567ffffffffffffffff811115611b7657600080fd5b611b828b828c01611a2a565b985050602089013567ffffffffffffffff811115611b9f57600080fd5b611bab8b828c01611a2a565b975050604089013567ffffffffffffffff811115611bc857600080fd5b611bd48b828c01611794565b965050606089013567ffffffffffffffff811115611bf157600080fd5b611bfd8b828c01611a2a565b9550506080611c0e8b828c01611a7e565b94505060a0611c1f8b828c01611a7e565b93505060c0611c308b828c01611a7e565b92505060e089013567ffffffffffffffff811115611c4d57600080fd5b611c598b828c0161187c565b9150509295985092959890939650565b600060208284031215611c7b57600080fd5b6000611c8984828501611a7e565b91505092915050565b60008060408385031215611ca557600080fd5b6000611cb385828601611a7e565b9250506020611cc485828601611a7e565b9150509250929050565b6000611cda8383611d51565b60208301905092915050565b6000611cf28383611d60565b60208301905092915050565b6000611d0a8383611f6b565b60208301905092915050565b6000611d228383611fe0565b905092915050565b6000611d3683836122d7565b60208301905092915050565b611d4b816129dc565b82525050565b611d5a81612981565b82525050565b611d698161296f565b82525050565b611d788161296f565b82525050565b6000611d898261286a565b611d9381856128f8565b9350611d9e8361281a565b8060005b83811015611dcf578151611db68882611ce6565b9750611dc1836128b7565b925050600181019050611da2565b5085935050505092915050565b6000611de782612875565b611df18185612909565b9350611dfc8361282a565b8060005b83811015611e2d578151611e148882611cce565b9750611e1f836128c4565b925050600181019050611e00565b5085935050505092915050565b6000611e4582612880565b611e4f818561291a565b9350611e5a8361283a565b8060005b83811015611e8b578151611e728882611cfe565b9750611e7d836128d1565b925050600181019050611e5e565b5085935050505092915050565b6000611ea38261288b565b611ead818561292b565b935083602082028501611ebf8561284a565b8060005b85811015611efb5784840389528151611edc8582611d16565b9450611ee7836128de565b925060208a01995050600181019050611ec3565b50829750879550505050505092915050565b6000611f1882612896565b611f22818561293c565b9350611f2d8361285a565b8060005b83811015611f5e578151611f458882611d2a565b9750611f50836128eb565b925050600181019050611f31565b5085935050505092915050565b611f7481612993565b82525050565b611f8381612993565b82525050565b611f92816129ee565b82525050565b611fa181612a00565b82525050565b6000611fb2826128ac565b611fbc818561295e565b9350611fcc818560208601612a45565b611fd581612a78565b840191505092915050565b6000611feb826128a1565b611ff5818561294d565b9350612005818560208601612a45565b61200e81612a78565b840191505092915050565b600061202660378361295e565b91507f5b4552524f525d2056616c75652073686f756c64206265206c6172676572207460008301527f68616e206f7220657175616c2073756d2a70726963652e0000000000000000006020830152604082019050919050565b600061208c60348361295e565b91507f5b4552524f525d2053756d2073686f756c6420736d616c6c6572207468616e2060008301527f6f7220657175616c20696e53746f636b4e756d2e0000000000000000000000006020830152604082019050919050565b60006120f260388361295e565b91507f5b4552524f525d20546865206e756d626572206f6620676f6f64732073686f7560008301527f6c642062652067726561746572207468616e207a65726f2e00000000000000006020830152604082019050919050565b600061215860338361295e565b91507f5b4552524f525d20546865206e756d626572206f6620696e53746f636b4e756d60008301527f206973206c657373207468616e207a65726f2e000000000000000000000000006020830152604082019050919050565b60006121be600c8361295e565b91507fe8b4ade4b9b0e59586e5938100000000000000000000000000000000000000006000830152602082019050919050565b60006121fe602a8361295e565b91507f5b4552524f525d204f6e6c792073656c6c65722063616e20757365207468697360008301527f2066756e6374696f6e2e000000000000000000000000000000000000000000006020830152604082019050919050565b600061226460068361295e565b91507fe58f91e8b4a700000000000000000000000000000000000000000000000000006000830152602082019050919050565b60006122a460098361295e565b91507fe5b7b2e594aee7a9ba00000000000000000000000000000000000000000000006000830152602082019050919050565b6122e0816129d2565b82525050565b6122ef816129d2565b82525050565b600060208201905061230a6000830184611d6f565b92915050565b6000606082019050818103600083015261232a8186611d7e565b9050818103602083015261233e8185611e98565b905081810360408301526123528184611f0d565b9050949350505050565b600060608201905081810360008301526123768186611ddc565b9050818103602083015261238a8185611f0d565b9050818103604083015261239e8184611e3a565b9050949350505050565b60006020820190506123bd6000830184611f7a565b92915050565b60006040820190506123d86000830185611f98565b6123e560208301846122e6565b9392505050565b60006080820190506124016000830186611f98565b61240e60208301856122e6565b61241b6040830184611d42565b818103606083015261242c816121b1565b9050949350505050565b600060808201905061244b6000830186611f98565b61245860208301856122e6565b6124656040830184611d42565b818103606083015261247681612257565b9050949350505050565b60006080820190506124956000830186611f98565b6124a260208301856122e6565b6124af6040830184611d42565b81810360608301526124c081612297565b9050949350505050565b600060208201905081810360008301526124e381612019565b9050919050565b600060208201905081810360008301526125038161207f565b9050919050565b60006020820190508181036000830152612523816120e5565b9050919050565b600060208201905081810360008301526125438161214b565b9050919050565b60006020820190508181036000830152612563816121f1565b9050919050565b600060208201905061257f60008301846122e6565b92915050565b60006101208201905061259b600083018c6122e6565b81810360208301526125ad818b611fa7565b905081810360408301526125c1818a611fa7565b905081810360608301526125d58189611e98565b905081810360808301526125e98188611fa7565b90506125f860a08301876122e6565b61260560c08301866122e6565b61261260e08301856122e6565b8181036101008301526126258184611f0d565b90509a9950505050505050505050565b60006101408201905061264b600083018d6122e6565b818103602083015261265d818c611fa7565b90508181036040830152612671818b611fa7565b90508181036060830152612685818a611e98565b905081810360808301526126998189611fa7565b90506126a860a08301886122e6565b6126b560c08301876122e6565b6126c260e08301866122e6565b8181036101008301526126d58185611f0d565b90506126e5610120830184611f89565b9b9a5050505050505050505050565b600060408201905061270960008301856122e6565b61271660208301846122e6565b9392505050565b6000604051905081810181811067ffffffffffffffff8211171561274057600080fd5b8060405250919050565b600067ffffffffffffffff82111561276157600080fd5b602082029050602081019050919050565b600067ffffffffffffffff82111561278957600080fd5b602082029050602081019050919050565b600067ffffffffffffffff8211156127b157600080fd5b602082029050602081019050919050565b600067ffffffffffffffff8211156127d957600080fd5b601f19601f8301169050602081019050919050565b600067ffffffffffffffff82111561280557600080fd5b601f19601f8301169050602081019050919050565b6000819050602082019050919050565b6000819050602082019050919050565b6000819050602082019050919050565b6000819050602082019050919050565b6000819050602082019050919050565b600081519050919050565b600081519050919050565b600081519050919050565b600081519050919050565b600081519050919050565b600081519050919050565b600081519050919050565b6000602082019050919050565b6000602082019050919050565b6000602082019050919050565b6000602082019050919050565b6000602082019050919050565b600082825260208201905092915050565b600082825260208201905092915050565b600082825260208201905092915050565b600082825260208201905092915050565b600082825260208201905092915050565b600082825260208201905092915050565b600082825260208201905092915050565b600061297a826129b2565b9050919050565b600061298c826129b2565b9050919050565b60008115159050919050565b60008190506129ad82612a89565b919050565b600073ffffffffffffffffffffffffffffffffffffffff82169050919050565b6000819050919050565b60006129e782612a12565b9050919050565b60006129f98261299f565b9050919050565b6000612a0b826129d2565b9050919050565b6000612a1d82612a24565b9050919050565b6000612a2f826129b2565b9050919050565b82818337600083830152505050565b60005b83811015612a63578082015181840152602081019050612a48565b83811115612a72576000848401525b50505050565b6000601f19601f8301169050919050565b60028110612a9357fe5b50565b612a9f8161296f565b8114612aaa57600080fd5b50565b612ab6816129d2565b8114612ac157600080fd5b5056fea365627a7a723158206c32aead394285b0a7c9bee81124bd79ef63a12a71368d9023c5cf623ceb86e16c6578706572696d656e74616cf564736f6c63430005100040608060405234801561001057600080fd5b5060008081905550610bf3806100276000396000f3fe608060405234801561001057600080fd5b506004361061004c5760003560e01c80631301b8c3146100515780631939077c1461006d578063977af4071461008b578063c1f526ea146100a9575b600080fd5b61006b6004803603610066919081019061067f565b6100db565b005b61007561027f565b60405161008291906109a7565b60405180910390f35b610093610285565b6040516100a091906109a7565b60405180910390f35b6100c360048036036100be9190810190610643565b61028e565b6040516100d29392919061093b565b60405180910390f35b60018414806100ea5750600284145b610129576040517f08c379a000000000000000000000000000000000000000000000000000000000815260040161012090610987565b60405180910390fd5b600160008082825401925050819055506001600085815260200190815260200160002060008481526020019081526020016000206000018290806001815401808255809150509060018203906000526020600020016000909192909190916101000a81548173ffffffffffffffffffffffffffffffffffffffff021916908373ffffffffffffffffffffffffffffffffffffffff16021790555050600160008581526020019081526020016000206000848152602001908152602001600020600101819080600181540180825580915050906001820390600052602060002001600090919290919091509080519060200190610226929190610520565b505060016000858152602001908152602001600020600084815260200190815260200160002060020142908060018154018082558091505090600182039060005260206000200160009091929091909150555050505050565b60005481565b60008054905090565b606080606060018514806102a25750600285145b6102e1576040517f08c379a00000000000000000000000000000000000000000000000000000000081526004016102d890610987565b60405180910390fd5b600160008681526020019081526020016000206000858152602001908152602001600020600001600160008781526020019081526020016000206000868152602001908152602001600020600101600160008881526020019081526020016000206000878152602001908152602001600020600201828054806020026020016040519081016040528092919081815260200182805480156103d757602002820191906000526020600020905b8160009054906101000a900473ffffffffffffffffffffffffffffffffffffffff1673ffffffffffffffffffffffffffffffffffffffff168152602001906001019080831161038d575b5050505050925081805480602002602001604051908101604052809291908181526020016000905b828210156104bb578382906000526020600020018054600181600116156101000203166002900480601f0160208091040260200160405190810160405280929190818152602001828054600181600116156101000203166002900480156104a75780601f1061047c576101008083540402835291602001916104a7565b820191906000526020600020905b81548152906001019060200180831161048a57829003601f168201915b5050505050815260200190600101906103ff565b5050505091508080548060200260200160405190810160405280929190818152602001828054801561050c57602002820191906000526020600020905b8154815260200190600101908083116104f8575b505050505090509250925092509250925092565b828054600181600116156101000203166002900490600052602060002090601f016020900481019282601f1061056157805160ff191683800117855561058f565b8280016001018555821561058f579182015b8281111561058e578251825591602001919060010190610573565b5b50905061059c91906105a0565b5090565b6105c291905b808211156105be5760008160009055506001016105a6565b5090565b90565b6000813590506105d481610b82565b92915050565b600082601f8301126105eb57600080fd5b81356105fe6105f9826109ef565b6109c2565b9150808252602083016020830185838301111561061a57600080fd5b610625838284610b2f565b50505092915050565b60008135905061063d81610b99565b92915050565b6000806040838503121561065657600080fd5b60006106648582860161062e565b92505060206106758582860161062e565b9150509250929050565b6000806000806080858703121561069557600080fd5b60006106a38782880161062e565b94505060206106b48782880161062e565b93505060406106c5878288016105c5565b925050606085013567ffffffffffffffff8111156106e257600080fd5b6106ee878288016105da565b91505092959194509250565b6000610706838361073e565b60208301905092915050565b600061071e838361087e565b905092915050565b6000610732838361091d565b60208301905092915050565b61074781610af3565b82525050565b600061075882610a4b565b6107628185610a9e565b935061076d83610a1b565b8060005b8381101561079e57815161078588826106fa565b975061079083610a77565b925050600181019050610771565b5085935050505092915050565b60006107b682610a56565b6107c08185610aaf565b9350836020820285016107d285610a2b565b8060005b8581101561080e57848403895281516107ef8582610712565b94506107fa83610a84565b925060208a019950506001810190506107d6565b50829750879550505050505092915050565b600061082b82610a61565b6108358185610ac0565b935061084083610a3b565b8060005b838110156108715781516108588882610726565b975061086383610a91565b925050600181019050610844565b5085935050505092915050565b600061088982610a6c565b6108938185610ad1565b93506108a3818560208601610b3e565b6108ac81610b71565b840191505092915050565b60006108c4603483610ae2565b91507f5b4552524f525d2054686520636c617373206f662074726163696e672073686f60008301527f756c6420626520657175616c2031206f7220322e0000000000000000000000006020830152604082019050919050565b61092681610b25565b82525050565b61093581610b25565b82525050565b60006060820190508181036000830152610955818661074d565b9050818103602083015261096981856107ab565b9050818103604083015261097d8184610820565b9050949350505050565b600060208201905081810360008301526109a0816108b7565b9050919050565b60006020820190506109bc600083018461092c565b92915050565b6000604051905081810181811067ffffffffffffffff821117156109e557600080fd5b8060405250919050565b600067ffffffffffffffff821115610a0657600080fd5b601f19601f8301169050602081019050919050565b6000819050602082019050919050565b6000819050602082019050919050565b6000819050602082019050919050565b600081519050919050565b600081519050919050565b600081519050919050565b600081519050919050565b6000602082019050919050565b6000602082019050919050565b6000602082019050919050565b600082825260208201905092915050565b600082825260208201905092915050565b600082825260208201905092915050565b600082825260208201905092915050565b600082825260208201905092915050565b6000610afe82610b05565b9050919050565b600073ffffffffffffffffffffffffffffffffffffffff82169050919050565b6000819050919050565b82818337600083830152505050565b60005b83811015610b5c578082015181840152602081019050610b41565b83811115610b6b576000848401525b50505050565b6000601f19601f8301169050919050565b610b8b81610af3565b8114610b9657600080fd5b50565b610ba281610b25565b8114610bad57600080fd5b5056fea365627a7a723158209380a69c369b4a475c6370d5b70adffcddd68d144c199dd824bc74b0ec91c8ee6c6578706572696d656e74616cf564736f6c63430005100040",
  "source": "// SPDX-License-Identifier: MIT\npragma solidity >=0.4.21 <8.10.0;\npragma experimental ABIEncoderV2;\n\nimport \"./Tracing.sol\";\n\n// pragma solidity >=0.4.13;\n\ncontract Shopping {\n    //\n    enum ProductStatus { Open, Sold }\n\n    //\n    uint public productIndex;\n    //\n    mapping (address => mapping(uint => Product)) stores;\n    //\n    mapping (uint => address payable) productIdInStore;\n\n    //\n    Tracing tracing = (new Tracing)();\n    address tracingContract = address(tracing);\n    \n\n    struct Product {\n        uint id;\n        string name;\n        string category;\n        string[] imageLinkArray;\n        string descLink;\n        uint price;\n        //\n        uint shippingTime;\n        //\n        uint inStockNum;\n        //\n        uint[] originPlace;\n        //\n        ProductStatus status;\n        //4\n        //\n        address payable[] buyer;\n        // //\n        // mapping (address =>  Order[]) orders;\n        uint[] sum;\n        //\n        uint[] value;\n        //\n        bool[] dealed;\n    }\n\n\n    //\n    // //\n    // struct Order{\n    //     //\n    //     uint sum;\n    //     //\n    //     uint value;\n    //     //\n    //     bool dealed;\n    // }\n\n\n    //\n    event NewGoods(uint _goodsId, string _name, string _category, string[] _imageLinkArray, string _descLink,\n  uint _shippingTime, uint _inStockNum, uint _price, uint[] _originPlace);\n\n    //\n    //0\n    event BuyGoods(uint _goodsId, uint _lastInStockNum);\n\n    constructor () public {\n        productIndex = 0;\n    }\n\n\n    //hash\n    function addGoodsToStore(string memory _name, string memory _category, string[] memory _imageLinkArray, string memory _descLink, uint _shippingTime,\n                                uint _inStockNum, uint _price, uint[] memory _originPlace) public payable {\n        require ( 0 < _inStockNum, \"[ERROR] The number of goods should be greater than zero.\");\n\n        productIndex += 1;\n        //\n        address payable[] memory buyer;\n        uint[] memory sum;\n        uint[] memory value;\n        bool[] memory dealed;\n        Product memory product = Product(productIndex, _name, _category, _imageLinkArray, _descLink, _price, _shippingTime, _inStockNum,\n                                         _originPlace, ProductStatus.Open, buyer, sum, value, dealed);\n\n        //\n        stores[msg.sender][productIndex] = product;\n        productIdInStore[productIndex] = msg.sender;\n\n        //mongodb\n        emit NewGoods(productIndex, _name, _category, _imageLinkArray, _descLink, _shippingTime, _inStockNum,\n                                        _price, _originPlace);\n    }\n\n    //\n    function getGoods(uint _productId) view public returns (uint, string memory, string memory, string[] memory, string memory, uint, uint, uint, uint[] memory, ProductStatus) {\n\n        //\n        Product storage product = stores[productIdInStore[_productId]][_productId];\n\n        //\n        return (product.id, product.name, product.category, product.imageLinkArray, product.descLink, product.price, product.shippingTime, product.inStockNum, product.originPlace, product.status);\n    }\n\n\n    //\n    function order(uint _productId, uint _sum) public payable returns (bool) {\n        Product storage product = stores[productIdInStore[_productId]][_productId];\n        //msg.value\n        require(msg.value >= product.price, \"[ERROR] Value should be larger than or equal sum*price.\");\n        //\n        require(_sum <= product.inStockNum, \"[ERROR] Sum should smaller than or equal inStockNum.\");\n        //\n        require(product.inStockNum >=0, \"[ERROR] The number of inStockNum is less than zero.\");\n\n        // // msg.sender  buyers \n        // //\n        // bool flag = false;\n        // uint buyerLen = product.buyers.length;\n        // for(uint i=0; i<buyerLen; i++){\n        //     if(msg.sender == product.buyers[i]){\n        //         flag = true;\n        //         break;\n        //     }\n        // }\n        // if(flag){\n        //     product.buyers.push(msg.sender);\n        // }\n        \n        // //\n        // // orders \n        // product.orders[msg.sender].push(Order(_sum, msg.value, false));\n\n        // address payable[] buyer;\n        // // //\n        // // mapping (address =>  Order[]) orders;\n        // uint[] sum;\n        // //\n        // uint[] value;\n        // //\n        // bool[] dealed;\n\n        product.buyer.push(msg.sender);\n        product.sum.push(_sum);\n        product.value.push(msg.value);\n        product.dealed.push(false);\n\n        //\n        product.inStockNum -= _sum;\n\n        //\n        emit BuyGoods(_productId, product.inStockNum);\n        //\n        Tracing(tracingContract).addOneLineToInfoLine(2, _productId, msg.sender, \"\");\n\n        if(product.inStockNum == 0){\n            //\n            product.status = ProductStatus.Sold;\n            Tracing(tracingContract).addOneLineToInfoLine(2, _productId, msg.sender, \"\");\n        }\n\n        return true;\n    }\n\n    //\n    //\n    function orderInfo(uint _productId) view public returns (address payable[] memory, uint[] memory, bool[] memory) {\n        Product storage product = stores[productIdInStore[_productId]][_productId];\n\n        // //\n        // address payable[] memory buyer;\n        // uint[] memory sum;\n        // bool[] memory dealed;\n        // //product.buyers\n        // uint buyerLen = product.buyers.length;\n        // uint arrayIndex = 0;\n        // //out\n        // for(uint i=0; i < buyerLen; i++){\n        //     //product.orders[product.buyer]\n        //     uint orderLen = product.orders[product.buyers[i]].length;\n        //     //in\n        //     for(uint j=0; j < orderLen; j++){\n        //         //\n        //         // buyer[arrayIndex] = product.buyers[i];\n        //         // sum[arrayIndex] = product.orders[product.buyers[i]][j].sum;\n        //         // dealed[arrayIndex] = product.orders[product.buyers[i]][j].dealed;\n        //         arrayIndex++;\n        //         // buyer.push(product.buyers[i]);\n        //         // sum.push(product.orders[product.buyers[i]][j].sum);\n        //         // dealed.push(product.orders[product.buyers[i]][j].dealed);\n        //     }\n        // }\n        return (product.buyer, product.sum, product.dealed);\n    }\n\n    //\n    function sendBySeller(uint _productId, uint _orderIndex) public returns (bool) {\n        //\n        require(msg.sender == productIdInStore[_productId], \"[ERROR] Only seller can use this function.\");\n\n        Product storage product = stores[productIdInStore[_productId]][_productId];\n\n        //\n        msg.sender.transfer(product.value[_orderIndex]);\n        //\n        product.dealed[_orderIndex] = true;\n\n        //\n        Tracing(tracingContract).addOneLineToInfoLine(2, _productId, msg.sender, \"\");\n\n        return true;\n    }\n\n\n    //\n    function sellerInfo(uint _productId) public view returns (address) {\n        return productIdInStore[_productId];\n    }\n\n    //return num of product\n    function getNumOfProduct() public view returns (uint) {\n        return productIndex;\n    }\n\n    //\n    function getTracingInfo(uint _productId) public view returns(address[] memory, string[] memory, uint[] memory){\n        return Tracing(tracingContract).getInfoLine(2, _productId);\n    }\n\n\n}\n",
  "sourcePath": "/home/kzj/project/finalize/final/code/truffle_code/contracts/Shopping.sol",
  "compiler": {
    "name": "solc",
    "version": "0.5.16+commit.9c3226ce.Emscripten.clang"
  },
  "schemaVersion": "3.4.4",
  "updatedAt": "2022-05-27T17:48:57.700Z",
  "networkType": "ethereum",
  "devdoc": {
    "methods": {}
  },
  "userdoc": {
    "methods": {}
  }
}