{
  "contractName": "Tracing",
  "abi": [
    {
      "inputs": [],
      "payable": false,
      "stateMutability": "nonpayable",
      "type": "constructor"
    },
    {
      "constant": true,
      "inputs": [],
      "name": "tracingIndex",
      "outputs": [
        {
          "internalType": "uint256",
          "name": "",
          "type": "uint256"
        }
      ],
      "payable": false,
      "stateMutability": "view",
      "type": "function"
    },
    {
      "constant": false,
      "inputs": [
        {
          "internalType": "uint256",
          "name": "_class",
          "type": "uint256"
        },
        {
          "internalType": "uint256",
          "name": "_ID",
          "type": "uint256"
        },
        {
          "internalType": "address",
          "name": "_publisher",
          "type": "address"
        },
        {
          "internalType": "string",
          "name": "_descLink",
          "type": "string"
        }
      ],
      "name": "addOneLineToInfoLine",
      "outputs": [],
      "payable": false,
      "stateMutability": "nonpayable",
      "type": "function"
    },
    {
      "constant": true,
      "inputs": [
        {
          "internalType": "uint256",
          "name": "_class",
          "type": "uint256"
        },
        {
          "internalType": "uint256",
          "name": "_ID",
          "type": "uint256"
        }
      ],
      "name": "getInfoLine",
      "outputs": [
        {
          "internalType": "address[]",
          "name": "",
          "type": "address[]"
        },
        {
          "internalType": "string[]",
          "name": "",
          "type": "string[]"
        },
        {
          "internalType": "uint256[]",
          "name": "",
          "type": "uint256[]"
        }
      ],
      "payable": false,
      "stateMutability": "view",
      "type": "function"
    },
    {
      "constant": true,
      "inputs": [],
      "name": "getNumOfTracing",
      "outputs": [
        {
          "internalType": "uint256",
          "name": "",
          "type": "uint256"
        }
      ],
      "payable": false,
      "stateMutability": "view",
      "type": "function"
    }
  ],
  "bytecode": "0x608060405234801561001057600080fd5b5060008081905550610bf3806100276000396000f3fe608060405234801561001057600080fd5b506004361061004c5760003560e01c80631301b8c3146100515780631939077c1461006d578063977af4071461008b578063c1f526ea146100a9575b600080fd5b61006b6004803603610066919081019061067f565b6100db565b005b61007561027f565b60405161008291906109a7565b60405180910390f35b610093610285565b6040516100a091906109a7565b60405180910390f35b6100c360048036036100be9190810190610643565b61028e565b6040516100d29392919061093b565b60405180910390f35b60018414806100ea5750600284145b610129576040517f08c379a000000000000000000000000000000000000000000000000000000000815260040161012090610987565b60405180910390fd5b600160008082825401925050819055506001600085815260200190815260200160002060008481526020019081526020016000206000018290806001815401808255809150509060018203906000526020600020016000909192909190916101000a81548173ffffffffffffffffffffffffffffffffffffffff021916908373ffffffffffffffffffffffffffffffffffffffff16021790555050600160008581526020019081526020016000206000848152602001908152602001600020600101819080600181540180825580915050906001820390600052602060002001600090919290919091509080519060200190610226929190610520565b505060016000858152602001908152602001600020600084815260200190815260200160002060020142908060018154018082558091505090600182039060005260206000200160009091929091909150555050505050565b60005481565b60008054905090565b606080606060018514806102a25750600285145b6102e1576040517f08c379a00000000000000000000000000000000000000000000000000000000081526004016102d890610987565b60405180910390fd5b600160008681526020019081526020016000206000858152602001908152602001600020600001600160008781526020019081526020016000206000868152602001908152602001600020600101600160008881526020019081526020016000206000878152602001908152602001600020600201828054806020026020016040519081016040528092919081815260200182805480156103d757602002820191906000526020600020905b8160009054906101000a900473ffffffffffffffffffffffffffffffffffffffff1673ffffffffffffffffffffffffffffffffffffffff168152602001906001019080831161038d575b5050505050925081805480602002602001604051908101604052809291908181526020016000905b828210156104bb578382906000526020600020018054600181600116156101000203166002900480601f0160208091040260200160405190810160405280929190818152602001828054600181600116156101000203166002900480156104a75780601f1061047c576101008083540402835291602001916104a7565b820191906000526020600020905b81548152906001019060200180831161048a57829003601f168201915b5050505050815260200190600101906103ff565b5050505091508080548060200260200160405190810160405280929190818152602001828054801561050c57602002820191906000526020600020905b8154815260200190600101908083116104f8575b505050505090509250925092509250925092565b828054600181600116156101000203166002900490600052602060002090601f016020900481019282601f1061056157805160ff191683800117855561058f565b8280016001018555821561058f579182015b8281111561058e578251825591602001919060010190610573565b5b50905061059c91906105a0565b5090565b6105c291905b808211156105be5760008160009055506001016105a6565b5090565b90565b6000813590506105d481610b82565b92915050565b600082601f8301126105eb57600080fd5b81356105fe6105f9826109ef565b6109c2565b9150808252602083016020830185838301111561061a57600080fd5b610625838284610b2f565b50505092915050565b60008135905061063d81610b99565b92915050565b6000806040838503121561065657600080fd5b60006106648582860161062e565b92505060206106758582860161062e565b9150509250929050565b6000806000806080858703121561069557600080fd5b60006106a38782880161062e565b94505060206106b48782880161062e565b93505060406106c5878288016105c5565b925050606085013567ffffffffffffffff8111156106e257600080fd5b6106ee878288016105da565b91505092959194509250565b6000610706838361073e565b60208301905092915050565b600061071e838361087e565b905092915050565b6000610732838361091d565b60208301905092915050565b61074781610af3565b82525050565b600061075882610a4b565b6107628185610a9e565b935061076d83610a1b565b8060005b8381101561079e57815161078588826106fa565b975061079083610a77565b925050600181019050610771565b5085935050505092915050565b60006107b682610a56565b6107c08185610aaf565b9350836020820285016107d285610a2b565b8060005b8581101561080e57848403895281516107ef8582610712565b94506107fa83610a84565b925060208a019950506001810190506107d6565b50829750879550505050505092915050565b600061082b82610a61565b6108358185610ac0565b935061084083610a3b565b8060005b838110156108715781516108588882610726565b975061086383610a91565b925050600181019050610844565b5085935050505092915050565b600061088982610a6c565b6108938185610ad1565b93506108a3818560208601610b3e565b6108ac81610b71565b840191505092915050565b60006108c4603483610ae2565b91507f5b4552524f525d2054686520636c617373206f662074726163696e672073686f60008301527f756c6420626520657175616c2031206f7220322e0000000000000000000000006020830152604082019050919050565b61092681610b25565b82525050565b61093581610b25565b82525050565b60006060820190508181036000830152610955818661074d565b9050818103602083015261096981856107ab565b9050818103604083015261097d8184610820565b9050949350505050565b600060208201905081810360008301526109a0816108b7565b9050919050565b60006020820190506109bc600083018461092c565b92915050565b6000604051905081810181811067ffffffffffffffff821117156109e557600080fd5b8060405250919050565b600067ffffffffffffffff821115610a0657600080fd5b601f19601f8301169050602081019050919050565b6000819050602082019050919050565b6000819050602082019050919050565b6000819050602082019050919050565b600081519050919050565b600081519050919050565b600081519050919050565b600081519050919050565b6000602082019050919050565b6000602082019050919050565b6000602082019050919050565b600082825260208201905092915050565b600082825260208201905092915050565b600082825260208201905092915050565b600082825260208201905092915050565b600082825260208201905092915050565b6000610afe82610b05565b9050919050565b600073ffffffffffffffffffffffffffffffffffffffff82169050919050565b6000819050919050565b82818337600083830152505050565b60005b83811015610b5c578082015181840152602081019050610b41565b83811115610b6b576000848401525b50505050565b6000601f19601f8301169050919050565b610b8b81610af3565b8114610b9657600080fd5b50565b610ba281610b25565b8114610bad57600080fd5b5056fea365627a7a723158209380a69c369b4a475c6370d5b70adffcddd68d144c199dd824bc74b0ec91c8ee6c6578706572696d656e74616cf564736f6c63430005100040",
  "source": "// SPDX-License-Identifier: MIT\npragma solidity >=0.4.21 <8.10.0;\npragma experimental ABIEncoderV2;\n\n\n// pragma solidity >=0.4.13;\n\ncontract Tracing {\n\n    //总量\n    uint public tracingIndex;\n    //先由类别信息(第一个uint)(拍卖=1, 买卖=2)查询，再由商品编号(第二个uint)查询\n    mapping (uint => mapping(uint => Trace)) infomation;\n\n    //add because function stringToUint\n    mapping (bytes1 => uint) bytes1ToUintTable;\n    \n\n    // //某一个商品的溯源信息\n    // struct Trace {\n    //     InfoLine[] Lines;\n    // }\n\n    // //某个商品的单条溯源信息\n    // struct InfoLine{\n    //     //信息发布人\n    //     address publisher;\n    //     //描述语句的IPFS解析链接\n    //     string descLink;\n    //     //发生时间\n    //     string exeTimeString;\n    // }\n\n    //一个商品的多条溯源信息\n    struct Trace {\n        //信息发布人\n        address[] publisher;\n        //描述语句的IPFS解析链接\n        string[] descLink;\n        //发生时间\n        uint[] exeTimeString;\n\n    }\n\n\n\n    constructor () public {\n        tracingIndex = 0;\n    }\n\n    // //向其中一个商品添加一条溯源信息\n    // function addOneLineToInfoLine(uint  _class, uint  _ID, string memory _descLink, string memory  _exeTimeString) public {\n    //     //暂时只有两类\n    //     require ( _class == 1 || _class == 2, \"[ERROR] The class of tracing should be equal 1 or 2.\");\n\n    //     tracingIndex += 1;\n    //     InfoLine memory Lines = InfoLine(msg.sender, _descLink,  _exeTimeString);\n\n    //     //绑定到总体结构中\n    //     //给数组添加一个元素\n    //     infomation[_class][_ID].Lines.push(Lines);\n    // }\n\n    //向其中一个商品添加一条溯源信息\n    function addOneLineToInfoLine(uint  _class, uint  _ID, address _publisher, string memory _descLink) public {\n        //暂时只有两类\n        require ( _class == 1 || _class == 2, \"[ERROR] The class of tracing should be equal 1 or 2.\");\n\n        tracingIndex += 1;\n\n        //绑定到总体结构中\n        //给数组添加一个元素\n        infomation[_class][_ID].publisher.push(_publisher);\n        infomation[_class][_ID].descLink.push(_descLink);\n        infomation[_class][_ID].exeTimeString.push(now);\n    }\n\n    // //可能返回空，要在前端进行判断\n    // function getInfoLine(uint  _class, uint  _ID) view public returns (InfoLine[] memory) {\n    //     //暂时只有两类\n    //     require ( _class == 1 || _class == 2, \"[ERROR] The class of tracing should be equal 1 or 2.\");\n    //     //返回数组，用下标索引\n    //     return (infomation[_class][_ID].Lines);\n    // }\n\n    //返回空，要在前端进行判断\n    function getInfoLine(uint  _class, uint  _ID) view public returns (address[] memory, string[] memory, uint[] memory) {\n        //暂时只有两类\n        require ( _class == 1 || _class == 2, \"[ERROR] The class of tracing should be equal 1 or 2.\");\n        //返回数组，用下标索引\n        return (infomation[_class][_ID].publisher, infomation[_class][_ID].descLink, infomation[_class][_ID].exeTimeString);\n    }\n\n\n    //return num of tracing\n    function getNumOfTracing() public view returns (uint) {\n        return tracingIndex;\n    }\n\n}",
  "sourcePath": "/home/kzj/project/finalize/final/code/truffle_code/contracts/Tracing.sol",
  "compiler": {
    "name": "solc",
    "version": "0.5.16+commit.9c3226ce.Emscripten.clang"
  },
  "schemaVersion": "3.4.4",
  "updatedAt": "2023-03-12T09:45:02.557Z",
  "networkType": "ethereum",
  "devdoc": {
    "methods": {}
  },
  "userdoc": {
    "methods": {}
  }
}